{
  "_format": "hh-sol-artifact-1",
  "contractName": "MyNFT",
  "sourceName": "contracts/MyNFT.sol",
  "abi": [
    {
      "inputs": [],
      "stateMutability": "payable",
      "type": "constructor"
    },
    {
      "anonymous": false,
      "inputs": [
        {
          "indexed": true,
          "internalType": "address",
          "name": "owner",
          "type": "address"
        },
        {
          "indexed": true,
          "internalType": "address",
          "name": "approved",
          "type": "address"
        },
        {
          "indexed": true,
          "internalType": "uint256",
          "name": "tokenId",
          "type": "uint256"
        }
      ],
      "name": "Approval",
      "type": "event"
    },
    {
      "anonymous": false,
      "inputs": [
        {
          "indexed": true,
          "internalType": "address",
          "name": "owner",
          "type": "address"
        },
        {
          "indexed": true,
          "internalType": "address",
          "name": "operator",
          "type": "address"
        },
        {
          "indexed": false,
          "internalType": "bool",
          "name": "approved",
          "type": "bool"
        }
      ],
      "name": "ApprovalForAll",
      "type": "event"
    },
    {
      "anonymous": false,
      "inputs": [
        {
          "indexed": false,
          "internalType": "uint256",
          "name": "_fromTokenId",
          "type": "uint256"
        },
        {
          "indexed": false,
          "internalType": "uint256",
          "name": "_toTokenId",
          "type": "uint256"
        }
      ],
      "name": "BatchMetadataUpdate",
      "type": "event"
    },
    {
      "anonymous": false,
      "inputs": [
        {
          "indexed": false,
          "internalType": "uint256",
          "name": "_tokenId",
          "type": "uint256"
        }
      ],
      "name": "MetadataUpdate",
      "type": "event"
    },
    {
      "anonymous": false,
      "inputs": [
        {
          "indexed": true,
          "internalType": "address",
          "name": "previousOwner",
          "type": "address"
        },
        {
          "indexed": true,
          "internalType": "address",
          "name": "newOwner",
          "type": "address"
        }
      ],
      "name": "OwnershipTransferred",
      "type": "event"
    },
    {
      "anonymous": false,
      "inputs": [
        {
          "indexed": true,
          "internalType": "address",
          "name": "from",
          "type": "address"
        },
        {
          "indexed": true,
          "internalType": "address",
          "name": "to",
          "type": "address"
        },
        {
          "indexed": true,
          "internalType": "uint256",
          "name": "tokenId",
          "type": "uint256"
        }
      ],
      "name": "Transfer",
      "type": "event"
    },
    {
      "inputs": [],
      "name": "_tokenIds",
      "outputs": [
        {
          "internalType": "uint256",
          "name": "_value",
          "type": "uint256"
        }
      ],
      "stateMutability": "view",
      "type": "function"
    },
    {
      "inputs": [
        {
          "internalType": "address",
          "name": "to",
          "type": "address"
        },
        {
          "internalType": "uint256",
          "name": "tokenId",
          "type": "uint256"
        }
      ],
      "name": "approve",
      "outputs": [],
      "stateMutability": "nonpayable",
      "type": "function"
    },
    {
      "inputs": [
        {
          "internalType": "address",
          "name": "owner",
          "type": "address"
        }
      ],
      "name": "balanceOf",
      "outputs": [
        {
          "internalType": "uint256",
          "name": "",
          "type": "uint256"
        }
      ],
      "stateMutability": "view",
      "type": "function"
    },
    {
      "inputs": [
        {
          "internalType": "uint256",
          "name": "tokenId",
          "type": "uint256"
        },
        {
          "internalType": "uint256",
          "name": "mintAmount",
          "type": "uint256"
        }
      ],
      "name": "burn1",
      "outputs": [],
      "stateMutability": "nonpayable",
      "type": "function"
    },
    {
      "inputs": [
        {
          "internalType": "uint256",
          "name": "tokenId",
          "type": "uint256"
        }
      ],
      "name": "getApproved",
      "outputs": [
        {
          "internalType": "address",
          "name": "",
          "type": "address"
        }
      ],
      "stateMutability": "view",
      "type": "function"
    },
    {
      "inputs": [
        {
          "internalType": "address",
          "name": "owner",
          "type": "address"
        },
        {
          "internalType": "address",
          "name": "operator",
          "type": "address"
        }
      ],
      "name": "isApprovedForAll",
      "outputs": [
        {
          "internalType": "bool",
          "name": "",
          "type": "bool"
        }
      ],
      "stateMutability": "view",
      "type": "function"
    },
    {
      "inputs": [
        {
          "internalType": "string",
          "name": "tokenURI",
          "type": "string"
        }
      ],
      "name": "mintNFT",
      "outputs": [
        {
          "internalType": "uint256",
          "name": "",
          "type": "uint256"
        }
      ],
      "stateMutability": "payable",
      "type": "function"
    },
    {
      "inputs": [],
      "name": "name",
      "outputs": [
        {
          "internalType": "string",
          "name": "",
          "type": "string"
        }
      ],
      "stateMutability": "view",
      "type": "function"
    },
    {
      "inputs": [],
      "name": "owner",
      "outputs": [
        {
          "internalType": "address",
          "name": "",
          "type": "address"
        }
      ],
      "stateMutability": "view",
      "type": "function"
    },
    {
      "inputs": [
        {
          "internalType": "uint256",
          "name": "tokenId",
          "type": "uint256"
        }
      ],
      "name": "ownerOf",
      "outputs": [
        {
          "internalType": "address",
          "name": "",
          "type": "address"
        }
      ],
      "stateMutability": "view",
      "type": "function"
    },
    {
      "inputs": [],
      "name": "renounceOwnership",
      "outputs": [],
      "stateMutability": "nonpayable",
      "type": "function"
    },
    {
      "inputs": [
        {
          "internalType": "address",
          "name": "from",
          "type": "address"
        },
        {
          "internalType": "address",
          "name": "to",
          "type": "address"
        },
        {
          "internalType": "uint256",
          "name": "tokenId",
          "type": "uint256"
        }
      ],
      "name": "safeTransferFrom",
      "outputs": [],
      "stateMutability": "nonpayable",
      "type": "function"
    },
    {
      "inputs": [
        {
          "internalType": "address",
          "name": "from",
          "type": "address"
        },
        {
          "internalType": "address",
          "name": "to",
          "type": "address"
        },
        {
          "internalType": "uint256",
          "name": "tokenId",
          "type": "uint256"
        },
        {
          "internalType": "bytes",
          "name": "data",
          "type": "bytes"
        }
      ],
      "name": "safeTransferFrom",
      "outputs": [],
      "stateMutability": "nonpayable",
      "type": "function"
    },
    {
      "inputs": [
        {
          "internalType": "address",
          "name": "operator",
          "type": "address"
        },
        {
          "internalType": "bool",
          "name": "approved",
          "type": "bool"
        }
      ],
      "name": "setApprovalForAll",
      "outputs": [],
      "stateMutability": "nonpayable",
      "type": "function"
    },
    {
      "inputs": [
        {
          "internalType": "bytes4",
          "name": "interfaceId",
          "type": "bytes4"
        }
      ],
      "name": "supportsInterface",
      "outputs": [
        {
          "internalType": "bool",
          "name": "",
          "type": "bool"
        }
      ],
      "stateMutability": "view",
      "type": "function"
    },
    {
      "inputs": [],
      "name": "symbol",
      "outputs": [
        {
          "internalType": "string",
          "name": "",
          "type": "string"
        }
      ],
      "stateMutability": "view",
      "type": "function"
    },
    {
      "inputs": [
        {
          "internalType": "uint256",
          "name": "tokenId",
          "type": "uint256"
        }
      ],
      "name": "tokenURI",
      "outputs": [
        {
          "internalType": "string",
          "name": "",
          "type": "string"
        }
      ],
      "stateMutability": "view",
      "type": "function"
    },
    {
      "inputs": [
        {
          "internalType": "address",
          "name": "from",
          "type": "address"
        },
        {
          "internalType": "address",
          "name": "to",
          "type": "address"
        },
        {
          "internalType": "uint256",
          "name": "tokenId",
          "type": "uint256"
        }
      ],
      "name": "transferFrom",
      "outputs": [],
      "stateMutability": "nonpayable",
      "type": "function"
    },
    {
      "inputs": [
        {
          "internalType": "address",
          "name": "newOwner",
          "type": "address"
        }
      ],
      "name": "transferOwnership",
      "outputs": [],
      "stateMutability": "nonpayable",
      "type": "function"
    }
  ],
  "bytecode": "0x60806040526040518060400160405280600781526020017f546573746e6574000000000000000000000000000000000000000000000000008152506040518060400160405280600481526020017f5445535400000000000000000000000000000000000000000000000000000000815250816000908162000081919062000404565b50806001908162000093919062000404565b505050620000b6620000aa620000bc60201b60201c565b620000c460201b60201c565b620004eb565b600033905090565b6000600760009054906101000a900473ffffffffffffffffffffffffffffffffffffffff16905081600760006101000a81548173ffffffffffffffffffffffffffffffffffffffff021916908373ffffffffffffffffffffffffffffffffffffffff1602179055508173ffffffffffffffffffffffffffffffffffffffff168173ffffffffffffffffffffffffffffffffffffffff167f8be0079c531659141344cd1fd0a4f28419497f9722a3daafe3b4186f6b6457e060405160405180910390a35050565b600081519050919050565b7f4e487b7100000000000000000000000000000000000000000000000000000000600052604160045260246000fd5b7f4e487b7100000000000000000000000000000000000000000000000000000000600052602260045260246000fd5b600060028204905060018216806200020c57607f821691505b602082108103620002225762000221620001c4565b5b50919050565b60008190508160005260206000209050919050565b60006020601f8301049050919050565b600082821b905092915050565b6000600883026200028c7fffffffffffffffffffffffffffffffffffffffffffffffffffffffffffffffff826200024d565b6200029886836200024d565b95508019841693508086168417925050509392505050565b6000819050919050565b6000819050919050565b6000620002e5620002df620002d984620002b0565b620002ba565b620002b0565b9050919050565b6000819050919050565b6200030183620002c4565b620003196200031082620002ec565b8484546200025a565b825550505050565b600090565b6200033062000321565b6200033d818484620002f6565b505050565b5b8181101562000365576200035960008262000326565b60018101905062000343565b5050565b601f821115620003b4576200037e8162000228565b62000389846200023d565b8101602085101562000399578190505b620003b1620003a8856200023d565b83018262000342565b50505b505050565b600082821c905092915050565b6000620003d960001984600802620003b9565b1980831691505092915050565b6000620003f48383620003c6565b9150826002028217905092915050565b6200040f826200018a565b67ffffffffffffffff8111156200042b576200042a62000195565b5b620004378254620001f3565b6200044482828562000369565b600060209050601f8311600181146200047c576000841562000467578287015190505b620004738582620003e6565b865550620004e3565b601f1984166200048c8662000228565b60005b82811015620004b6578489015182556001820191506020850194506020810190506200048f565b86831015620004d65784890151620004d2601f891682620003c6565b8355505b6001600288020188555050505b505050505050565b61328080620004fb6000396000f3fe6080604052600436106101145760003560e01c8063715018a6116100a0578063b88d4fde11610064578063b88d4fde1461039d578063c87b56dd146103c6578063e985e9c514610403578063f2fde38b14610440578063fb37e8831461046957610114565b8063715018a6146102dc5780638da5cb5b146102f357806395d89b411461031e578063a22cb46514610349578063aa46a4001461037257610114565b806323b872dd116100e757806323b872dd146101e75780633fc77e751461021057806342842e0e146102395780636352211e1461026257806370a082311461029f57610114565b806301ffc9a71461011957806306fdde0314610156578063081812fc14610181578063095ea7b3146101be575b600080fd5b34801561012557600080fd5b50610140600480360381019061013b9190612044565b610499565b60405161014d919061208c565b60405180910390f35b34801561016257600080fd5b5061016b6104fa565b6040516101789190612137565b60405180910390f35b34801561018d57600080fd5b506101a860048036038101906101a3919061218f565b61058c565b6040516101b591906121fd565b60405180910390f35b3480156101ca57600080fd5b506101e560048036038101906101e09190612244565b6105d2565b005b3480156101f357600080fd5b5061020e60048036038101906102099190612284565b6106e9565b005b34801561021c57600080fd5b50610237600480360381019061023291906122d7565b610749565b005b34801561024557600080fd5b50610260600480360381019061025b9190612284565b61079d565b005b34801561026e57600080fd5b506102896004803603810190610284919061218f565b6107bd565b60405161029691906121fd565b60405180910390f35b3480156102ab57600080fd5b506102c660048036038101906102c19190612317565b610843565b6040516102d39190612353565b60405180910390f35b3480156102e857600080fd5b506102f16108fa565b005b3480156102ff57600080fd5b5061030861090e565b60405161031591906121fd565b60405180910390f35b34801561032a57600080fd5b50610333610938565b6040516103409190612137565b60405180910390f35b34801561035557600080fd5b50610370600480360381019061036b919061239a565b6109ca565b005b34801561037e57600080fd5b506103876109e0565b6040516103949190612353565b60405180910390f35b3480156103a957600080fd5b506103c460048036038101906103bf919061250f565b6109ec565b005b3480156103d257600080fd5b506103ed60048036038101906103e8919061218f565b610a4e565b6040516103fa9190612137565b60405180910390f35b34801561040f57600080fd5b5061042a60048036038101906104259190612592565b610b60565b604051610437919061208c565b60405180910390f35b34801561044c57600080fd5b5061046760048036038101906104629190612317565b610bf4565b005b610483600480360381019061047e9190612673565b610c77565b6040516104909190612353565b60405180910390f35b6000634906490660e01b7bffffffffffffffffffffffffffffffffffffffffffffffffffffffff1916827bffffffffffffffffffffffffffffffffffffffffffffffffffffffff191614806104f357506104f282610cb6565b5b9050919050565b606060008054610509906126eb565b80601f0160208091040260200160405190810160405280929190818152602001828054610535906126eb565b80156105825780601f1061055757610100808354040283529160200191610582565b820191906000526020600020905b81548152906001019060200180831161056557829003601f168201915b5050505050905090565b600061059782610d98565b6004600083815260200190815260200160002060009054906101000a900473ffffffffffffffffffffffffffffffffffffffff169050919050565b60006105dd826107bd565b90508073ffffffffffffffffffffffffffffffffffffffff168373ffffffffffffffffffffffffffffffffffffffff160361064d576040517f08c379a00000000000000000000000000000000000000000000000000000000081526004016106449061278e565b60405180910390fd5b8073ffffffffffffffffffffffffffffffffffffffff1661066c610de3565b73ffffffffffffffffffffffffffffffffffffffff16148061069b575061069a81610695610de3565b610b60565b5b6106da576040517f08c379a00000000000000000000000000000000000000000000000000000000081526004016106d190612820565b60405180910390fd5b6106e48383610deb565b505050565b6106fa6106f4610de3565b82610ea4565b610739576040517f08c379a0000000000000000000000000000000000000000000000000000000008152600401610730906128b2565b60405180910390fd5b610744838383610f39565b505050565b61075282611232565b3373ffffffffffffffffffffffffffffffffffffffff166108fc829081150290604051600060405180830381858888f19350505050158015610798573d6000803e3d6000fd5b505050565b6107b8838383604051806020016040528060008152506109ec565b505050565b6000806107c983611285565b9050600073ffffffffffffffffffffffffffffffffffffffff168173ffffffffffffffffffffffffffffffffffffffff160361083a576040517f08c379a00000000000000000000000000000000000000000000000000000000081526004016108319061291e565b60405180910390fd5b80915050919050565b60008073ffffffffffffffffffffffffffffffffffffffff168273ffffffffffffffffffffffffffffffffffffffff16036108b3576040517f08c379a00000000000000000000000000000000000000000000000000000000081526004016108aa906129b0565b60405180910390fd5b600360008373ffffffffffffffffffffffffffffffffffffffff1673ffffffffffffffffffffffffffffffffffffffff168152602001908152602001600020549050919050565b6109026112c2565b61090c6000611340565b565b6000600760009054906101000a900473ffffffffffffffffffffffffffffffffffffffff16905090565b606060018054610947906126eb565b80601f0160208091040260200160405190810160405280929190818152602001828054610973906126eb565b80156109c05780601f10610995576101008083540402835291602001916109c0565b820191906000526020600020905b8154815290600101906020018083116109a357829003601f168201915b5050505050905090565b6109dc6109d5610de3565b8383611406565b5050565b60088060000154905081565b6109fd6109f7610de3565b83610ea4565b610a3c576040517f08c379a0000000000000000000000000000000000000000000000000000000008152600401610a33906128b2565b60405180910390fd5b610a4884848484611572565b50505050565b6060610a5982610d98565b6000600660008481526020019081526020016000208054610a79906126eb565b80601f0160208091040260200160405190810160405280929190818152602001828054610aa5906126eb565b8015610af25780601f10610ac757610100808354040283529160200191610af2565b820191906000526020600020905b815481529060010190602001808311610ad557829003601f168201915b505050505090506000610b036115ce565b90506000815103610b18578192505050610b5b565b600082511115610b4d578082604051602001610b35929190612a0c565b60405160208183030381529060405292505050610b5b565b610b56846115e5565b925050505b919050565b6000600560008473ffffffffffffffffffffffffffffffffffffffff1673ffffffffffffffffffffffffffffffffffffffff16815260200190815260200160002060008373ffffffffffffffffffffffffffffffffffffffff1673ffffffffffffffffffffffffffffffffffffffff16815260200190815260200160002060009054906101000a900460ff16905092915050565b610bfc6112c2565b600073ffffffffffffffffffffffffffffffffffffffff168173ffffffffffffffffffffffffffffffffffffffff1603610c6b576040517f08c379a0000000000000000000000000000000000000000000000000000000008152600401610c6290612aa2565b60405180910390fd5b610c7481611340565b50565b6000610c816112c2565b610c8b600861164d565b6000610c976008611663565b9050610ca33382611671565b610cad818461168f565b80915050919050565b60007f80ac58cd000000000000000000000000000000000000000000000000000000007bffffffffffffffffffffffffffffffffffffffffffffffffffffffff1916827bffffffffffffffffffffffffffffffffffffffffffffffffffffffff19161480610d8157507f5b5e139f000000000000000000000000000000000000000000000000000000007bffffffffffffffffffffffffffffffffffffffffffffffffffffffff1916827bffffffffffffffffffffffffffffffffffffffffffffffffffffffff1916145b80610d915750610d9082611733565b5b9050919050565b610da18161179d565b610de0576040517f08c379a0000000000000000000000000000000000000000000000000000000008152600401610dd79061291e565b60405180910390fd5b50565b600033905090565b816004600083815260200190815260200160002060006101000a81548173ffffffffffffffffffffffffffffffffffffffff021916908373ffffffffffffffffffffffffffffffffffffffff160217905550808273ffffffffffffffffffffffffffffffffffffffff16610e5e836107bd565b73ffffffffffffffffffffffffffffffffffffffff167f8c5be1e5ebec7d5bd14f71427d1e84f3dd0314c0f7b2291e5b200ac8c7c3b92560405160405180910390a45050565b600080610eb0836107bd565b90508073ffffffffffffffffffffffffffffffffffffffff168473ffffffffffffffffffffffffffffffffffffffff161480610ef25750610ef18185610b60565b5b80610f3057508373ffffffffffffffffffffffffffffffffffffffff16610f188461058c565b73ffffffffffffffffffffffffffffffffffffffff16145b91505092915050565b8273ffffffffffffffffffffffffffffffffffffffff16610f59826107bd565b73ffffffffffffffffffffffffffffffffffffffff1614610faf576040517f08c379a0000000000000000000000000000000000000000000000000000000008152600401610fa690612b34565b60405180910390fd5b600073ffffffffffffffffffffffffffffffffffffffff168273ffffffffffffffffffffffffffffffffffffffff160361101e576040517f08c379a000000000000000000000000000000000000000000000000000000000815260040161101590612bc6565b60405180910390fd5b61102b83838360016117de565b8273ffffffffffffffffffffffffffffffffffffffff1661104b826107bd565b73ffffffffffffffffffffffffffffffffffffffff16146110a1576040517f08c379a000000000000000000000000000000000000000000000000000000000815260040161109890612b34565b60405180910390fd5b6004600082815260200190815260200160002060006101000a81549073ffffffffffffffffffffffffffffffffffffffff02191690556001600360008573ffffffffffffffffffffffffffffffffffffffff1673ffffffffffffffffffffffffffffffffffffffff168152602001908152602001600020600082825403925050819055506001600360008473ffffffffffffffffffffffffffffffffffffffff1673ffffffffffffffffffffffffffffffffffffffff16815260200190815260200160002060008282540192505081905550816002600083815260200190815260200160002060006101000a81548173ffffffffffffffffffffffffffffffffffffffff021916908373ffffffffffffffffffffffffffffffffffffffff160217905550808273ffffffffffffffffffffffffffffffffffffffff168473ffffffffffffffffffffffffffffffffffffffff167fddf252ad1be2c89b69c2b068fc378daa952ba7f163c4a11628f55a4df523b3ef60405160405180910390a461122d83838360016117e4565b505050565b61123b816117ea565b600060066000838152602001908152602001600020805461125b906126eb565b905014611282576006600082815260200190815260200160002060006112819190611f7b565b5b50565b60006002600083815260200190815260200160002060009054906101000a900473ffffffffffffffffffffffffffffffffffffffff169050919050565b6112ca610de3565b73ffffffffffffffffffffffffffffffffffffffff166112e861090e565b73ffffffffffffffffffffffffffffffffffffffff161461133e576040517f08c379a000000000000000000000000000000000000000000000000000000000815260040161133590612c32565b60405180910390fd5b565b6000600760009054906101000a900473ffffffffffffffffffffffffffffffffffffffff16905081600760006101000a81548173ffffffffffffffffffffffffffffffffffffffff021916908373ffffffffffffffffffffffffffffffffffffffff1602179055508173ffffffffffffffffffffffffffffffffffffffff168173ffffffffffffffffffffffffffffffffffffffff167f8be0079c531659141344cd1fd0a4f28419497f9722a3daafe3b4186f6b6457e060405160405180910390a35050565b8173ffffffffffffffffffffffffffffffffffffffff168373ffffffffffffffffffffffffffffffffffffffff1603611474576040517f08c379a000000000000000000000000000000000000000000000000000000000815260040161146b90612c9e565b60405180910390fd5b80600560008573ffffffffffffffffffffffffffffffffffffffff1673ffffffffffffffffffffffffffffffffffffffff16815260200190815260200160002060008473ffffffffffffffffffffffffffffffffffffffff1673ffffffffffffffffffffffffffffffffffffffff16815260200190815260200160002060006101000a81548160ff0219169083151502179055508173ffffffffffffffffffffffffffffffffffffffff168373ffffffffffffffffffffffffffffffffffffffff167f17307eab39ab6107e8899845ad3d59bd9653f200f220920489ca2b5937696c3183604051611565919061208c565b60405180910390a3505050565b61157d848484610f39565b61158984848484611938565b6115c8576040517f08c379a00000000000000000000000000000000000000000000000000000000081526004016115bf90612d30565b60405180910390fd5b50505050565b606060405180602001604052806000815250905090565b60606115f082610d98565b60006115fa6115ce565b9050600081511161161a5760405180602001604052806000815250611645565b8061162484611abf565b604051602001611635929190612a0c565b6040516020818303038152906040525b915050919050565b6001816000016000828254019250508190555050565b600081600001549050919050565b61168b828260405180602001604052806000815250611b8d565b5050565b6116988261179d565b6116d7576040517f08c379a00000000000000000000000000000000000000000000000000000000081526004016116ce90612dc2565b60405180910390fd5b806006600084815260200190815260200160002090816116f79190612f8e565b507ff8e1a15aba9398e019f0b49df1a4fde98ee17ae345cb5f6b5e2c27f5033e8ce7826040516117279190612353565b60405180910390a15050565b60007f01ffc9a7000000000000000000000000000000000000000000000000000000007bffffffffffffffffffffffffffffffffffffffffffffffffffffffff1916827bffffffffffffffffffffffffffffffffffffffffffffffffffffffff1916149050919050565b60008073ffffffffffffffffffffffffffffffffffffffff166117bf83611285565b73ffffffffffffffffffffffffffffffffffffffff1614159050919050565b50505050565b50505050565b60006117f5826107bd565b90506118058160008460016117de565b61180e826107bd565b90506004600083815260200190815260200160002060006101000a81549073ffffffffffffffffffffffffffffffffffffffff02191690556001600360008373ffffffffffffffffffffffffffffffffffffffff1673ffffffffffffffffffffffffffffffffffffffff168152602001908152602001600020600082825403925050819055506002600083815260200190815260200160002060006101000a81549073ffffffffffffffffffffffffffffffffffffffff021916905581600073ffffffffffffffffffffffffffffffffffffffff168273ffffffffffffffffffffffffffffffffffffffff167fddf252ad1be2c89b69c2b068fc378daa952ba7f163c4a11628f55a4df523b3ef60405160405180910390a46119348160008460016117e4565b5050565b60006119598473ffffffffffffffffffffffffffffffffffffffff16611be8565b15611ab2578373ffffffffffffffffffffffffffffffffffffffff1663150b7a02611982610de3565b8786866040518563ffffffff1660e01b81526004016119a494939291906130b5565b6020604051808303816000875af19250505080156119e057506040513d601f19601f820116820180604052508101906119dd9190613116565b60015b611a62573d8060008114611a10576040519150601f19603f3d011682016040523d82523d6000602084013e611a15565b606091505b506000815103611a5a576040517f08c379a0000000000000000000000000000000000000000000000000000000008152600401611a5190612d30565b60405180910390fd5b805181602001fd5b63150b7a0260e01b7bffffffffffffffffffffffffffffffffffffffffffffffffffffffff1916817bffffffffffffffffffffffffffffffffffffffffffffffffffffffff191614915050611ab7565b600190505b949350505050565b606060006001611ace84611c0b565b01905060008167ffffffffffffffff811115611aed57611aec6123e4565b5b6040519080825280601f01601f191660200182016040528015611b1f5781602001600182028036833780820191505090505b509050600082602001820190505b600115611b82578080600190039150507f3031323334353637383961626364656600000000000000000000000000000000600a86061a8153600a8581611b7657611b75613143565b5b04945060008503611b2d575b819350505050919050565b611b978383611d5e565b611ba46000848484611938565b611be3576040517f08c379a0000000000000000000000000000000000000000000000000000000008152600401611bda90612d30565b60405180910390fd5b505050565b6000808273ffffffffffffffffffffffffffffffffffffffff163b119050919050565b600080600090507a184f03e93ff9f4daa797ed6e38ed64bf6a1f0100000000000000008310611c69577a184f03e93ff9f4daa797ed6e38ed64bf6a1f0100000000000000008381611c5f57611c5e613143565b5b0492506040810190505b6d04ee2d6d415b85acef81000000008310611ca6576d04ee2d6d415b85acef81000000008381611c9c57611c9b613143565b5b0492506020810190505b662386f26fc100008310611cd557662386f26fc100008381611ccb57611cca613143565b5b0492506010810190505b6305f5e1008310611cfe576305f5e1008381611cf457611cf3613143565b5b0492506008810190505b6127108310611d23576127108381611d1957611d18613143565b5b0492506004810190505b60648310611d465760648381611d3c57611d3b613143565b5b0492506002810190505b600a8310611d55576001810190505b80915050919050565b600073ffffffffffffffffffffffffffffffffffffffff168273ffffffffffffffffffffffffffffffffffffffff1603611dcd576040517f08c379a0000000000000000000000000000000000000000000000000000000008152600401611dc4906131be565b60405180910390fd5b611dd68161179d565b15611e16576040517f08c379a0000000000000000000000000000000000000000000000000000000008152600401611e0d9061322a565b60405180910390fd5b611e246000838360016117de565b611e2d8161179d565b15611e6d576040517f08c379a0000000000000000000000000000000000000000000000000000000008152600401611e649061322a565b60405180910390fd5b6001600360008473ffffffffffffffffffffffffffffffffffffffff1673ffffffffffffffffffffffffffffffffffffffff16815260200190815260200160002060008282540192505081905550816002600083815260200190815260200160002060006101000a81548173ffffffffffffffffffffffffffffffffffffffff021916908373ffffffffffffffffffffffffffffffffffffffff160217905550808273ffffffffffffffffffffffffffffffffffffffff16600073ffffffffffffffffffffffffffffffffffffffff167fddf252ad1be2c89b69c2b068fc378daa952ba7f163c4a11628f55a4df523b3ef60405160405180910390a4611f776000838360016117e4565b5050565b508054611f87906126eb565b6000825580601f10611f995750611fb8565b601f016020900490600052602060002090810190611fb79190611fbb565b5b50565b5b80821115611fd4576000816000905550600101611fbc565b5090565b6000604051905090565b600080fd5b600080fd5b60007fffffffff0000000000000000000000000000000000000000000000000000000082169050919050565b61202181611fec565b811461202c57600080fd5b50565b60008135905061203e81612018565b92915050565b60006020828403121561205a57612059611fe2565b5b60006120688482850161202f565b91505092915050565b60008115159050919050565b61208681612071565b82525050565b60006020820190506120a1600083018461207d565b92915050565b600081519050919050565b600082825260208201905092915050565b60005b838110156120e15780820151818401526020810190506120c6565b60008484015250505050565b6000601f19601f8301169050919050565b6000612109826120a7565b61211381856120b2565b93506121238185602086016120c3565b61212c816120ed565b840191505092915050565b6000602082019050818103600083015261215181846120fe565b905092915050565b6000819050919050565b61216c81612159565b811461217757600080fd5b50565b60008135905061218981612163565b92915050565b6000602082840312156121a5576121a4611fe2565b5b60006121b38482850161217a565b91505092915050565b600073ffffffffffffffffffffffffffffffffffffffff82169050919050565b60006121e7826121bc565b9050919050565b6121f7816121dc565b82525050565b600060208201905061221260008301846121ee565b92915050565b612221816121dc565b811461222c57600080fd5b50565b60008135905061223e81612218565b92915050565b6000806040838503121561225b5761225a611fe2565b5b60006122698582860161222f565b925050602061227a8582860161217a565b9150509250929050565b60008060006060848603121561229d5761229c611fe2565b5b60006122ab8682870161222f565b93505060206122bc8682870161222f565b92505060406122cd8682870161217a565b9150509250925092565b600080604083850312156122ee576122ed611fe2565b5b60006122fc8582860161217a565b925050602061230d8582860161217a565b9150509250929050565b60006020828403121561232d5761232c611fe2565b5b600061233b8482850161222f565b91505092915050565b61234d81612159565b82525050565b60006020820190506123686000830184612344565b92915050565b61237781612071565b811461238257600080fd5b50565b6000813590506123948161236e565b92915050565b600080604083850312156123b1576123b0611fe2565b5b60006123bf8582860161222f565b92505060206123d085828601612385565b9150509250929050565b600080fd5b600080fd5b7f4e487b7100000000000000000000000000000000000000000000000000000000600052604160045260246000fd5b61241c826120ed565b810181811067ffffffffffffffff8211171561243b5761243a6123e4565b5b80604052505050565b600061244e611fd8565b905061245a8282612413565b919050565b600067ffffffffffffffff82111561247a576124796123e4565b5b612483826120ed565b9050602081019050919050565b82818337600083830152505050565b60006124b26124ad8461245f565b612444565b9050828152602081018484840111156124ce576124cd6123df565b5b6124d9848285612490565b509392505050565b600082601f8301126124f6576124f56123da565b5b813561250684826020860161249f565b91505092915050565b6000806000806080858703121561252957612528611fe2565b5b60006125378782880161222f565b94505060206125488782880161222f565b93505060406125598782880161217a565b925050606085013567ffffffffffffffff81111561257a57612579611fe7565b5b612586878288016124e1565b91505092959194509250565b600080604083850312156125a9576125a8611fe2565b5b60006125b78582860161222f565b92505060206125c88582860161222f565b9150509250929050565b600067ffffffffffffffff8211156125ed576125ec6123e4565b5b6125f6826120ed565b9050602081019050919050565b6000612616612611846125d2565b612444565b905082815260208101848484011115612632576126316123df565b5b61263d848285612490565b509392505050565b600082601f83011261265a576126596123da565b5b813561266a848260208601612603565b91505092915050565b60006020828403121561268957612688611fe2565b5b600082013567ffffffffffffffff8111156126a7576126a6611fe7565b5b6126b384828501612645565b91505092915050565b7f4e487b7100000000000000000000000000000000000000000000000000000000600052602260045260246000fd5b6000600282049050600182168061270357607f821691505b602082108103612716576127156126bc565b5b50919050565b7f4552433732313a20617070726f76616c20746f2063757272656e74206f776e6560008201527f7200000000000000000000000000000000000000000000000000000000000000602082015250565b60006127786021836120b2565b91506127838261271c565b604082019050919050565b600060208201905081810360008301526127a78161276b565b9050919050565b7f4552433732313a20617070726f76652063616c6c6572206973206e6f7420746f60008201527f6b656e206f776e6572206f7220617070726f76656420666f7220616c6c000000602082015250565b600061280a603d836120b2565b9150612815826127ae565b604082019050919050565b60006020820190508181036000830152612839816127fd565b9050919050565b7f4552433732313a2063616c6c6572206973206e6f7420746f6b656e206f776e6560008201527f72206f7220617070726f76656400000000000000000000000000000000000000602082015250565b600061289c602d836120b2565b91506128a782612840565b604082019050919050565b600060208201905081810360008301526128cb8161288f565b9050919050565b7f4552433732313a20696e76616c696420746f6b656e2049440000000000000000600082015250565b60006129086018836120b2565b9150612913826128d2565b602082019050919050565b60006020820190508181036000830152612937816128fb565b9050919050565b7f4552433732313a2061646472657373207a65726f206973206e6f74206120766160008201527f6c6964206f776e65720000000000000000000000000000000000000000000000602082015250565b600061299a6029836120b2565b91506129a58261293e565b604082019050919050565b600060208201905081810360008301526129c98161298d565b9050919050565b600081905092915050565b60006129e6826120a7565b6129f081856129d0565b9350612a008185602086016120c3565b80840191505092915050565b6000612a1882856129db565b9150612a2482846129db565b91508190509392505050565b7f4f776e61626c653a206e6577206f776e657220697320746865207a65726f206160008201527f6464726573730000000000000000000000000000000000000000000000000000602082015250565b6000612a8c6026836120b2565b9150612a9782612a30565b604082019050919050565b60006020820190508181036000830152612abb81612a7f565b9050919050565b7f4552433732313a207472616e736665722066726f6d20696e636f72726563742060008201527f6f776e6572000000000000000000000000000000000000000000000000000000602082015250565b6000612b1e6025836120b2565b9150612b2982612ac2565b604082019050919050565b60006020820190508181036000830152612b4d81612b11565b9050919050565b7f4552433732313a207472616e7366657220746f20746865207a65726f2061646460008201527f7265737300000000000000000000000000000000000000000000000000000000602082015250565b6000612bb06024836120b2565b9150612bbb82612b54565b604082019050919050565b60006020820190508181036000830152612bdf81612ba3565b9050919050565b7f4f776e61626c653a2063616c6c6572206973206e6f7420746865206f776e6572600082015250565b6000612c1c6020836120b2565b9150612c2782612be6565b602082019050919050565b60006020820190508181036000830152612c4b81612c0f565b9050919050565b7f4552433732313a20617070726f766520746f2063616c6c657200000000000000600082015250565b6000612c886019836120b2565b9150612c9382612c52565b602082019050919050565b60006020820190508181036000830152612cb781612c7b565b9050919050565b7f4552433732313a207472616e7366657220746f206e6f6e20455243373231526560008201527f63656976657220696d706c656d656e7465720000000000000000000000000000602082015250565b6000612d1a6032836120b2565b9150612d2582612cbe565b604082019050919050565b60006020820190508181036000830152612d4981612d0d565b9050919050565b7f45524337323155524953746f726167653a2055524920736574206f66206e6f6e60008201527f6578697374656e7420746f6b656e000000000000000000000000000000000000602082015250565b6000612dac602e836120b2565b9150612db782612d50565b604082019050919050565b60006020820190508181036000830152612ddb81612d9f565b9050919050565b60008190508160005260206000209050919050565b60006020601f8301049050919050565b600082821b905092915050565b600060088302612e447fffffffffffffffffffffffffffffffffffffffffffffffffffffffffffffffff82612e07565b612e4e8683612e07565b95508019841693508086168417925050509392505050565b6000819050919050565b6000612e8b612e86612e8184612159565b612e66565b612159565b9050919050565b6000819050919050565b612ea583612e70565b612eb9612eb182612e92565b848454612e14565b825550505050565b600090565b612ece612ec1565b612ed9818484612e9c565b505050565b5b81811015612efd57612ef2600082612ec6565b600181019050612edf565b5050565b601f821115612f4257612f1381612de2565b612f1c84612df7565b81016020851015612f2b578190505b612f3f612f3785612df7565b830182612ede565b50505b505050565b600082821c905092915050565b6000612f6560001984600802612f47565b1980831691505092915050565b6000612f7e8383612f54565b9150826002028217905092915050565b612f97826120a7565b67ffffffffffffffff811115612fb057612faf6123e4565b5b612fba82546126eb565b612fc5828285612f01565b600060209050601f831160018114612ff85760008415612fe6578287015190505b612ff08582612f72565b865550613058565b601f19841661300686612de2565b60005b8281101561302e57848901518255600182019150602085019450602081019050613009565b8683101561304b5784890151613047601f891682612f54565b8355505b6001600288020188555050505b505050505050565b600081519050919050565b600082825260208201905092915050565b600061308782613060565b613091818561306b565b93506130a18185602086016120c3565b6130aa816120ed565b840191505092915050565b60006080820190506130ca60008301876121ee565b6130d760208301866121ee565b6130e46040830185612344565b81810360608301526130f6818461307c565b905095945050505050565b60008151905061311081612018565b92915050565b60006020828403121561312c5761312b611fe2565b5b600061313a84828501613101565b91505092915050565b7f4e487b7100000000000000000000000000000000000000000000000000000000600052601260045260246000fd5b7f4552433732313a206d696e7420746f20746865207a65726f2061646472657373600082015250565b60006131a86020836120b2565b91506131b382613172565b602082019050919050565b600060208201905081810360008301526131d78161319b565b9050919050565b7f4552433732313a20746f6b656e20616c7265616479206d696e74656400000000600082015250565b6000613214601c836120b2565b915061321f826131de565b602082019050919050565b6000602082019050818103600083015261324381613207565b905091905056fea2646970667358221220fb7959d2e52fc061e81d096e47582d522519006e655f1c31d60202ae00c0849164736f6c63430008180033",
  "linkReferences": {},
  "deployedLinkReferences": {}
}