{
  "_format": "hh-sol-artifact-1",
  "contractName": "MyNFT",
  "sourceName": "contracts/MyNFT.sol",
  "abi": [
    {
      "inputs": [],
      "stateMutability": "payable",
      "type": "constructor"
    },
    {
      "inputs": [],
      "name": "ERC721EnumerableForbiddenBatchMint",
      "type": "error"
    },
    {
      "inputs": [
        {
          "internalType": "address",
          "name": "sender",
          "type": "address"
        },
        {
          "internalType": "uint256",
          "name": "tokenId",
          "type": "uint256"
        },
        {
          "internalType": "address",
          "name": "owner",
          "type": "address"
        }
      ],
      "name": "ERC721IncorrectOwner",
      "type": "error"
    },
    {
      "inputs": [
        {
          "internalType": "address",
          "name": "operator",
          "type": "address"
        },
        {
          "internalType": "uint256",
          "name": "tokenId",
          "type": "uint256"
        }
      ],
      "name": "ERC721InsufficientApproval",
      "type": "error"
    },
    {
      "inputs": [
        {
          "internalType": "address",
          "name": "approver",
          "type": "address"
        }
      ],
      "name": "ERC721InvalidApprover",
      "type": "error"
    },
    {
      "inputs": [
        {
          "internalType": "address",
          "name": "operator",
          "type": "address"
        }
      ],
      "name": "ERC721InvalidOperator",
      "type": "error"
    },
    {
      "inputs": [
        {
          "internalType": "address",
          "name": "owner",
          "type": "address"
        }
      ],
      "name": "ERC721InvalidOwner",
      "type": "error"
    },
    {
      "inputs": [
        {
          "internalType": "address",
          "name": "receiver",
          "type": "address"
        }
      ],
      "name": "ERC721InvalidReceiver",
      "type": "error"
    },
    {
      "inputs": [
        {
          "internalType": "address",
          "name": "sender",
          "type": "address"
        }
      ],
      "name": "ERC721InvalidSender",
      "type": "error"
    },
    {
      "inputs": [
        {
          "internalType": "uint256",
          "name": "tokenId",
          "type": "uint256"
        }
      ],
      "name": "ERC721NonexistentToken",
      "type": "error"
    },
    {
      "inputs": [
        {
          "internalType": "address",
          "name": "owner",
          "type": "address"
        },
        {
          "internalType": "uint256",
          "name": "index",
          "type": "uint256"
        }
      ],
      "name": "ERC721OutOfBoundsIndex",
      "type": "error"
    },
    {
      "inputs": [
        {
          "internalType": "address",
          "name": "owner",
          "type": "address"
        }
      ],
      "name": "OwnableInvalidOwner",
      "type": "error"
    },
    {
      "inputs": [
        {
          "internalType": "address",
          "name": "account",
          "type": "address"
        }
      ],
      "name": "OwnableUnauthorizedAccount",
      "type": "error"
    },
    {
      "anonymous": false,
      "inputs": [
        {
          "indexed": true,
          "internalType": "address",
          "name": "owner",
          "type": "address"
        },
        {
          "indexed": true,
          "internalType": "address",
          "name": "approved",
          "type": "address"
        },
        {
          "indexed": true,
          "internalType": "uint256",
          "name": "tokenId",
          "type": "uint256"
        }
      ],
      "name": "Approval",
      "type": "event"
    },
    {
      "anonymous": false,
      "inputs": [
        {
          "indexed": true,
          "internalType": "address",
          "name": "owner",
          "type": "address"
        },
        {
          "indexed": true,
          "internalType": "address",
          "name": "operator",
          "type": "address"
        },
        {
          "indexed": false,
          "internalType": "bool",
          "name": "approved",
          "type": "bool"
        }
      ],
      "name": "ApprovalForAll",
      "type": "event"
    },
    {
      "anonymous": false,
      "inputs": [
        {
          "indexed": false,
          "internalType": "uint256",
          "name": "_fromTokenId",
          "type": "uint256"
        },
        {
          "indexed": false,
          "internalType": "uint256",
          "name": "_toTokenId",
          "type": "uint256"
        }
      ],
      "name": "BatchMetadataUpdate",
      "type": "event"
    },
    {
      "anonymous": false,
      "inputs": [
        {
          "indexed": false,
          "internalType": "uint256",
          "name": "_tokenId",
          "type": "uint256"
        }
      ],
      "name": "MetadataUpdate",
      "type": "event"
    },
    {
      "anonymous": false,
      "inputs": [
        {
          "indexed": true,
          "internalType": "address",
          "name": "previousOwner",
          "type": "address"
        },
        {
          "indexed": true,
          "internalType": "address",
          "name": "newOwner",
          "type": "address"
        }
      ],
      "name": "OwnershipTransferred",
      "type": "event"
    },
    {
      "anonymous": false,
      "inputs": [
        {
          "indexed": true,
          "internalType": "address",
          "name": "from",
          "type": "address"
        },
        {
          "indexed": true,
          "internalType": "address",
          "name": "to",
          "type": "address"
        },
        {
          "indexed": true,
          "internalType": "uint256",
          "name": "tokenId",
          "type": "uint256"
        }
      ],
      "name": "Transfer",
      "type": "event"
    },
    {
      "inputs": [
        {
          "internalType": "address",
          "name": "to",
          "type": "address"
        },
        {
          "internalType": "uint256",
          "name": "tokenId",
          "type": "uint256"
        }
      ],
      "name": "approve",
      "outputs": [],
      "stateMutability": "nonpayable",
      "type": "function"
    },
    {
      "inputs": [
        {
          "internalType": "address",
          "name": "owner",
          "type": "address"
        }
      ],
      "name": "balanceOf",
      "outputs": [
        {
          "internalType": "uint256",
          "name": "",
          "type": "uint256"
        }
      ],
      "stateMutability": "view",
      "type": "function"
    },
    {
      "inputs": [
        {
          "internalType": "uint256",
          "name": "_tokenId",
          "type": "uint256"
        }
      ],
      "name": "burn1",
      "outputs": [],
      "stateMutability": "nonpayable",
      "type": "function"
    },
    {
      "inputs": [],
      "name": "currentPrice",
      "outputs": [
        {
          "internalType": "uint256",
          "name": "",
          "type": "uint256"
        }
      ],
      "stateMutability": "view",
      "type": "function"
    },
    {
      "inputs": [
        {
          "internalType": "uint256",
          "name": "tokenId",
          "type": "uint256"
        }
      ],
      "name": "getApproved",
      "outputs": [
        {
          "internalType": "address",
          "name": "",
          "type": "address"
        }
      ],
      "stateMutability": "view",
      "type": "function"
    },
    {
      "inputs": [
        {
          "internalType": "address",
          "name": "owner",
          "type": "address"
        },
        {
          "internalType": "address",
          "name": "operator",
          "type": "address"
        }
      ],
      "name": "isApprovedForAll",
      "outputs": [
        {
          "internalType": "bool",
          "name": "",
          "type": "bool"
        }
      ],
      "stateMutability": "view",
      "type": "function"
    },
    {
      "inputs": [
        {
          "internalType": "string",
          "name": "_tokenURI",
          "type": "string"
        }
      ],
      "name": "mintNFT",
      "outputs": [
        {
          "internalType": "uint256",
          "name": "",
          "type": "uint256"
        }
      ],
      "stateMutability": "payable",
      "type": "function"
    },
    {
      "inputs": [],
      "name": "name",
      "outputs": [
        {
          "internalType": "string",
          "name": "",
          "type": "string"
        }
      ],
      "stateMutability": "view",
      "type": "function"
    },
    {
      "inputs": [],
      "name": "owner",
      "outputs": [
        {
          "internalType": "address",
          "name": "",
          "type": "address"
        }
      ],
      "stateMutability": "view",
      "type": "function"
    },
    {
      "inputs": [
        {
          "internalType": "uint256",
          "name": "tokenId",
          "type": "uint256"
        }
      ],
      "name": "ownerOf",
      "outputs": [
        {
          "internalType": "address",
          "name": "",
          "type": "address"
        }
      ],
      "stateMutability": "view",
      "type": "function"
    },
    {
      "inputs": [],
      "name": "renounceOwnership",
      "outputs": [],
      "stateMutability": "nonpayable",
      "type": "function"
    },
    {
      "inputs": [
        {
          "internalType": "address",
          "name": "from",
          "type": "address"
        },
        {
          "internalType": "address",
          "name": "to",
          "type": "address"
        },
        {
          "internalType": "uint256",
          "name": "tokenId",
          "type": "uint256"
        }
      ],
      "name": "safeTransferFrom",
      "outputs": [],
      "stateMutability": "nonpayable",
      "type": "function"
    },
    {
      "inputs": [
        {
          "internalType": "address",
          "name": "from",
          "type": "address"
        },
        {
          "internalType": "address",
          "name": "to",
          "type": "address"
        },
        {
          "internalType": "uint256",
          "name": "tokenId",
          "type": "uint256"
        },
        {
          "internalType": "bytes",
          "name": "data",
          "type": "bytes"
        }
      ],
      "name": "safeTransferFrom",
      "outputs": [],
      "stateMutability": "nonpayable",
      "type": "function"
    },
    {
      "inputs": [
        {
          "internalType": "address",
          "name": "operator",
          "type": "address"
        },
        {
          "internalType": "bool",
          "name": "approved",
          "type": "bool"
        }
      ],
      "name": "setApprovalForAll",
      "outputs": [],
      "stateMutability": "nonpayable",
      "type": "function"
    },
    {
      "inputs": [
        {
          "internalType": "bytes4",
          "name": "interfaceId",
          "type": "bytes4"
        }
      ],
      "name": "supportsInterface",
      "outputs": [
        {
          "internalType": "bool",
          "name": "",
          "type": "bool"
        }
      ],
      "stateMutability": "view",
      "type": "function"
    },
    {
      "inputs": [],
      "name": "symbol",
      "outputs": [
        {
          "internalType": "string",
          "name": "",
          "type": "string"
        }
      ],
      "stateMutability": "view",
      "type": "function"
    },
    {
      "inputs": [
        {
          "internalType": "uint256",
          "name": "index",
          "type": "uint256"
        }
      ],
      "name": "tokenByIndex",
      "outputs": [
        {
          "internalType": "uint256",
          "name": "",
          "type": "uint256"
        }
      ],
      "stateMutability": "view",
      "type": "function"
    },
    {
      "inputs": [],
      "name": "tokenId1",
      "outputs": [
        {
          "internalType": "uint256",
          "name": "",
          "type": "uint256"
        }
      ],
      "stateMutability": "view",
      "type": "function"
    },
    {
      "inputs": [
        {
          "internalType": "address",
          "name": "owner",
          "type": "address"
        },
        {
          "internalType": "uint256",
          "name": "index",
          "type": "uint256"
        }
      ],
      "name": "tokenOfOwnerByIndex",
      "outputs": [
        {
          "internalType": "uint256",
          "name": "",
          "type": "uint256"
        }
      ],
      "stateMutability": "view",
      "type": "function"
    },
    {
      "inputs": [
        {
          "internalType": "uint256",
          "name": "tokenId",
          "type": "uint256"
        }
      ],
      "name": "tokenURI",
      "outputs": [
        {
          "internalType": "string",
          "name": "",
          "type": "string"
        }
      ],
      "stateMutability": "view",
      "type": "function"
    },
    {
      "inputs": [],
      "name": "totalSupply",
      "outputs": [
        {
          "internalType": "uint256",
          "name": "",
          "type": "uint256"
        }
      ],
      "stateMutability": "view",
      "type": "function"
    },
    {
      "inputs": [
        {
          "internalType": "address",
          "name": "from",
          "type": "address"
        },
        {
          "internalType": "address",
          "name": "to",
          "type": "address"
        },
        {
          "internalType": "uint256",
          "name": "tokenId",
          "type": "uint256"
        }
      ],
      "name": "transferFrom",
      "outputs": [],
      "stateMutability": "nonpayable",
      "type": "function"
    },
    {
      "inputs": [
        {
          "internalType": "address",
          "name": "newOwner",
          "type": "address"
        }
      ],
      "name": "transferOwnership",
      "outputs": [],
      "stateMutability": "nonpayable",
      "type": "function"
    }
  ],
  "bytecode": "0x608060405266038d7ea4c68000600c55336040518060400160405280600781526020017f546573746e6574000000000000000000000000000000000000000000000000008152506040518060400160405280600481526020017f544553540000000000000000000000000000000000000000000000000000000081525081600090816200008d91906200046f565b5080600190816200009f91906200046f565b505050600073ffffffffffffffffffffffffffffffffffffffff168173ffffffffffffffffffffffffffffffffffffffff1603620001175760006040517f1e4fbdf70000000000000000000000000000000000000000000000000000000081526004016200010e91906200059b565b60405180910390fd5b62000128816200012f60201b60201c565b50620005b8565b6000600760009054906101000a900473ffffffffffffffffffffffffffffffffffffffff16905081600760006101000a81548173ffffffffffffffffffffffffffffffffffffffff021916908373ffffffffffffffffffffffffffffffffffffffff1602179055508173ffffffffffffffffffffffffffffffffffffffff168173ffffffffffffffffffffffffffffffffffffffff167f8be0079c531659141344cd1fd0a4f28419497f9722a3daafe3b4186f6b6457e060405160405180910390a35050565b600081519050919050565b7f4e487b7100000000000000000000000000000000000000000000000000000000600052604160045260246000fd5b7f4e487b7100000000000000000000000000000000000000000000000000000000600052602260045260246000fd5b600060028204905060018216806200027757607f821691505b6020821081036200028d576200028c6200022f565b5b50919050565b60008190508160005260206000209050919050565b60006020601f8301049050919050565b600082821b905092915050565b600060088302620002f77fffffffffffffffffffffffffffffffffffffffffffffffffffffffffffffffff82620002b8565b620003038683620002b8565b95508019841693508086168417925050509392505050565b6000819050919050565b6000819050919050565b6000620003506200034a62000344846200031b565b62000325565b6200031b565b9050919050565b6000819050919050565b6200036c836200032f565b620003846200037b8262000357565b848454620002c5565b825550505050565b600090565b6200039b6200038c565b620003a881848462000361565b505050565b5b81811015620003d057620003c460008262000391565b600181019050620003ae565b5050565b601f8211156200041f57620003e98162000293565b620003f484620002a8565b8101602085101562000404578190505b6200041c6200041385620002a8565b830182620003ad565b50505b505050565b600082821c905092915050565b6000620004446000198460080262000424565b1980831691505092915050565b60006200045f838362000431565b9150826002028217905092915050565b6200047a82620001f5565b67ffffffffffffffff81111562000496576200049562000200565b5b620004a282546200025e565b620004af828285620003d4565b600060209050601f831160018114620004e75760008415620004d2578287015190505b620004de858262000451565b8655506200054e565b601f198416620004f78662000293565b60005b828110156200052157848901518255600182019150602085019450602081019050620004fa565b868310156200054157848901516200053d601f89168262000431565b8355505b6001600288020188555050505b505050505050565b600073ffffffffffffffffffffffffffffffffffffffff82169050919050565b6000620005838262000556565b9050919050565b620005958162000576565b82525050565b6000602082019050620005b260008301846200058a565b92915050565b61309580620005c86000396000f3fe6080604052600436106101405760003560e01c8063715018a6116100b6578063b88d4fde1161006f578063b88d4fde1461046e578063c87b56dd14610497578063e985e9c5146104d4578063f2fde38b14610511578063f7efcb0e1461053a578063fb37e8831461056557610140565b8063715018a6146103845780638da5cb5b1461039b5780638f625c4c146103c657806395d89b41146103ef5780639d1b464a1461041a578063a22cb4651461044557610140565b806323b872dd1161010857806323b872dd1461023e5780632f745c591461026757806342842e0e146102a45780634f6ccce7146102cd5780636352211e1461030a57806370a082311461034757610140565b806301ffc9a71461014557806306fdde0314610182578063081812fc146101ad578063095ea7b3146101ea57806318160ddd14610213575b600080fd5b34801561015157600080fd5b5061016c600480360381019061016791906123d2565b610595565b604051610179919061241a565b60405180910390f35b34801561018e57600080fd5b506101976105a7565b6040516101a491906124c5565b60405180910390f35b3480156101b957600080fd5b506101d460048036038101906101cf919061251d565b610639565b6040516101e1919061258b565b60405180910390f35b3480156101f657600080fd5b50610211600480360381019061020c91906125d2565b610655565b005b34801561021f57600080fd5b5061022861066b565b6040516102359190612621565b60405180910390f35b34801561024a57600080fd5b506102656004803603810190610260919061263c565b610678565b005b34801561027357600080fd5b5061028e600480360381019061028991906125d2565b61077a565b60405161029b9190612621565b60405180910390f35b3480156102b057600080fd5b506102cb60048036038101906102c6919061263c565b610823565b005b3480156102d957600080fd5b506102f460048036038101906102ef919061251d565b610843565b6040516103019190612621565b60405180910390f35b34801561031657600080fd5b50610331600480360381019061032c919061251d565b6108b9565b60405161033e919061258b565b60405180910390f35b34801561035357600080fd5b5061036e6004803603810190610369919061268f565b6108cb565b60405161037b9190612621565b60405180910390f35b34801561039057600080fd5b50610399610985565b005b3480156103a757600080fd5b506103b0610999565b6040516103bd919061258b565b60405180910390f35b3480156103d257600080fd5b506103ed60048036038101906103e8919061251d565b6109c3565b005b3480156103fb57600080fd5b50610404610a51565b60405161041191906124c5565b60405180910390f35b34801561042657600080fd5b5061042f610ae3565b60405161043c9190612621565b60405180910390f35b34801561045157600080fd5b5061046c600480360381019061046791906126e8565b610ae9565b005b34801561047a57600080fd5b506104956004803603810190610490919061285d565b610aff565b005b3480156104a357600080fd5b506104be60048036038101906104b9919061251d565b610b1c565b6040516104cb91906124c5565b60405180910390f35b3480156104e057600080fd5b506104fb60048036038101906104f691906128e0565b610b2e565b604051610508919061241a565b60405180910390f35b34801561051d57600080fd5b506105386004803603810190610533919061268f565b610bc2565b005b34801561054657600080fd5b5061054f610c48565b60405161055c9190612621565b60405180910390f35b61057f600480360381019061057a91906129c1565b610c4e565b60405161058c9190612621565b60405180910390f35b60006105a082610c8f565b9050919050565b6060600080546105b690612a39565b80601f01602080910402602001604051908101604052809291908181526020018280546105e290612a39565b801561062f5780601f106106045761010080835404028352916020019161062f565b820191906000526020600020905b81548152906001019060200180831161061257829003601f168201915b5050505050905090565b600061064482610d09565b5061064e82610d91565b9050919050565b6106678282610662610dce565b610dd6565b5050565b6000600a80549050905090565b600073ffffffffffffffffffffffffffffffffffffffff168273ffffffffffffffffffffffffffffffffffffffff16036106ea5760006040517f64a0ae920000000000000000000000000000000000000000000000000000000081526004016106e1919061258b565b60405180910390fd5b60006106fe83836106f9610dce565b610de8565b90508373ffffffffffffffffffffffffffffffffffffffff168173ffffffffffffffffffffffffffffffffffffffff1614610774578382826040517f64283d7b00000000000000000000000000000000000000000000000000000000815260040161076b93929190612a6a565b60405180910390fd5b50505050565b6000610785836108cb565b82106107ca5782826040517fa57d13dc0000000000000000000000000000000000000000000000000000000081526004016107c1929190612aa1565b60405180910390fd5b600860008473ffffffffffffffffffffffffffffffffffffffff1673ffffffffffffffffffffffffffffffffffffffff168152602001908152602001600020600083815260200190815260200160002054905092915050565b61083e83838360405180602001604052806000815250610aff565b505050565b600061084d61066b565b8210610893576000826040517fa57d13dc00000000000000000000000000000000000000000000000000000000815260040161088a929190612aa1565b60405180910390fd5b600a82815481106108a7576108a6612aca565b5b90600052602060002001549050919050565b60006108c482610d09565b9050919050565b60008073ffffffffffffffffffffffffffffffffffffffff168273ffffffffffffffffffffffffffffffffffffffff160361093e5760006040517f89c62b64000000000000000000000000000000000000000000000000000000008152600401610935919061258b565b60405180910390fd5b600360008373ffffffffffffffffffffffffffffffffffffffff1673ffffffffffffffffffffffffffffffffffffffff168152602001908152602001600020549050919050565b61098d610dfe565b6109976000610e85565b565b6000600760009054906101000a900473ffffffffffffffffffffffffffffffffffffffff16905090565b80806109ce90612b28565b9150506109e46000826109df610dce565b610de8565b50600d60008154809291906109f890612b28565b9190505550610a05610f4b565b3373ffffffffffffffffffffffffffffffffffffffff166108fc600c549081150290604051600060405180830381858888f19350505050158015610a4d573d6000803e3d6000fd5b5050565b606060018054610a6090612a39565b80601f0160208091040260200160405190810160405280929190818152602001828054610a8c90612a39565b8015610ad95780601f10610aae57610100808354040283529160200191610ad9565b820191906000526020600020905b815481529060010190602001808311610abc57829003601f168201915b5050505050905090565b600c5481565b610afb610af4610dce565b8383610f8c565b5050565b610b0a848484610678565b610b16848484846110fb565b50505050565b6060610b27826112b2565b9050919050565b6000600560008473ffffffffffffffffffffffffffffffffffffffff1673ffffffffffffffffffffffffffffffffffffffff16815260200190815260200160002060008373ffffffffffffffffffffffffffffffffffffffff1673ffffffffffffffffffffffffffffffffffffffff16815260200190815260200160002060009054906101000a900460ff16905092915050565b610bca610dfe565b600073ffffffffffffffffffffffffffffffffffffffff168173ffffffffffffffffffffffffffffffffffffffff1603610c3c5760006040517f1e4fbdf7000000000000000000000000000000000000000000000000000000008152600401610c33919061258b565b60405180910390fd5b610c4581610e85565b50565b600d5481565b600080600d6000815480929190610c6490612b51565b919050559050610c7433826113c5565b610c7c610f4b565b610c8681846113e3565b80915050919050565b60007f780e9d63000000000000000000000000000000000000000000000000000000007bffffffffffffffffffffffffffffffffffffffffffffffffffffffff1916827bffffffffffffffffffffffffffffffffffffffffffffffffffffffff19161480610d025750610d018261143f565b5b9050919050565b600080610d15836114a0565b9050600073ffffffffffffffffffffffffffffffffffffffff168173ffffffffffffffffffffffffffffffffffffffff1603610d8857826040517f7e273289000000000000000000000000000000000000000000000000000000008152600401610d7f9190612621565b60405180910390fd5b80915050919050565b60006004600083815260200190815260200160002060009054906101000a900473ffffffffffffffffffffffffffffffffffffffff169050919050565b600033905090565b610de383838360016114dd565b505050565b6000610df58484846116a2565b90509392505050565b610e06610dce565b73ffffffffffffffffffffffffffffffffffffffff16610e24610999565b73ffffffffffffffffffffffffffffffffffffffff1614610e8357610e47610dce565b6040517f118cdaa7000000000000000000000000000000000000000000000000000000008152600401610e7a919061258b565b60405180910390fd5b565b6000600760009054906101000a900473ffffffffffffffffffffffffffffffffffffffff16905081600760006101000a81548173ffffffffffffffffffffffffffffffffffffffff021916908373ffffffffffffffffffffffffffffffffffffffff1602179055508173ffffffffffffffffffffffffffffffffffffffff168173ffffffffffffffffffffffffffffffffffffffff167f8be0079c531659141344cd1fd0a4f28419497f9722a3daafe3b4186f6b6457e060405160405180910390a35050565b6000610f5561066b565b9050613e808182670de0b6b3a7640000610f6f9190612b99565b610f799190612b99565b610f839190612c0a565b600c8190555050565b600073ffffffffffffffffffffffffffffffffffffffff168273ffffffffffffffffffffffffffffffffffffffff1603610ffd57816040517f5b08ba18000000000000000000000000000000000000000000000000000000008152600401610ff4919061258b565b60405180910390fd5b80600560008573ffffffffffffffffffffffffffffffffffffffff1673ffffffffffffffffffffffffffffffffffffffff16815260200190815260200160002060008473ffffffffffffffffffffffffffffffffffffffff1673ffffffffffffffffffffffffffffffffffffffff16815260200190815260200160002060006101000a81548160ff0219169083151502179055508173ffffffffffffffffffffffffffffffffffffffff168373ffffffffffffffffffffffffffffffffffffffff167f17307eab39ab6107e8899845ad3d59bd9653f200f220920489ca2b5937696c31836040516110ee919061241a565b60405180910390a3505050565b60008373ffffffffffffffffffffffffffffffffffffffff163b11156112ac578273ffffffffffffffffffffffffffffffffffffffff1663150b7a0261113f610dce565b8685856040518563ffffffff1660e01b81526004016111619493929190612c90565b6020604051808303816000875af192505050801561119d57506040513d601f19601f8201168201806040525081019061119a9190612cf1565b60015b611221573d80600081146111cd576040519150601f19603f3d011682016040523d82523d6000602084013e6111d2565b606091505b50600081510361121957836040517f64a0ae92000000000000000000000000000000000000000000000000000000008152600401611210919061258b565b60405180910390fd5b805181602001fd5b63150b7a0260e01b7bffffffffffffffffffffffffffffffffffffffffffffffffffffffff1916817bffffffffffffffffffffffffffffffffffffffffffffffffffffffff1916146112aa57836040517f64a0ae920000000000000000000000000000000000000000000000000000000081526004016112a1919061258b565b60405180910390fd5b505b50505050565b60606112bd82610d09565b5060006006600084815260200190815260200160002080546112de90612a39565b80601f016020809104026020016040519081016040528092919081815260200182805461130a90612a39565b80156113575780601f1061132c57610100808354040283529160200191611357565b820191906000526020600020905b81548152906001019060200180831161133a57829003601f168201915b5050505050905060006113686117bf565b9050600081510361137d5781925050506113c0565b6000825111156113b257808260405160200161139a929190612d5a565b604051602081830303815290604052925050506113c0565b6113bb846117d6565b925050505b919050565b6113df82826040518060200160405280600081525061183f565b5050565b806006600084815260200190815260200160002090816114039190612f2a565b507ff8e1a15aba9398e019f0b49df1a4fde98ee17ae345cb5f6b5e2c27f5033e8ce7826040516114339190612621565b60405180910390a15050565b6000634906490660e01b7bffffffffffffffffffffffffffffffffffffffffffffffffffffffff1916827bffffffffffffffffffffffffffffffffffffffffffffffffffffffff1916148061149957506114988261185b565b5b9050919050565b60006002600083815260200190815260200160002060009054906101000a900473ffffffffffffffffffffffffffffffffffffffff169050919050565b80806115165750600073ffffffffffffffffffffffffffffffffffffffff168273ffffffffffffffffffffffffffffffffffffffff1614155b1561164a57600061152684610d09565b9050600073ffffffffffffffffffffffffffffffffffffffff168373ffffffffffffffffffffffffffffffffffffffff161415801561159157508273ffffffffffffffffffffffffffffffffffffffff168173ffffffffffffffffffffffffffffffffffffffff1614155b80156115a457506115a28184610b2e565b155b156115e657826040517fa9fbf51f0000000000000000000000000000000000000000000000000000000081526004016115dd919061258b565b60405180910390fd5b811561164857838573ffffffffffffffffffffffffffffffffffffffff168273ffffffffffffffffffffffffffffffffffffffff167f8c5be1e5ebec7d5bd14f71427d1e84f3dd0314c0f7b2291e5b200ac8c7c3b92560405160405180910390a45b505b836004600085815260200190815260200160002060006101000a81548173ffffffffffffffffffffffffffffffffffffffff021916908373ffffffffffffffffffffffffffffffffffffffff16021790555050505050565b6000806116b085858561193d565b9050600073ffffffffffffffffffffffffffffffffffffffff168173ffffffffffffffffffffffffffffffffffffffff16036116f4576116ef84611b57565b611733565b8473ffffffffffffffffffffffffffffffffffffffff168173ffffffffffffffffffffffffffffffffffffffff1614611732576117318185611ba0565b5b5b600073ffffffffffffffffffffffffffffffffffffffff168573ffffffffffffffffffffffffffffffffffffffff16036117755761177084611d01565b6117b4565b8473ffffffffffffffffffffffffffffffffffffffff168173ffffffffffffffffffffffffffffffffffffffff16146117b3576117b28585611dd2565b5b5b809150509392505050565b606060405180602001604052806000815250905090565b60606117e182610d09565b5060006117ec6117bf565b9050600081511161180c5760405180602001604052806000815250611837565b8061181684611e5d565b604051602001611827929190612d5a565b6040516020818303038152906040525b915050919050565b6118498383611f2b565b61185660008484846110fb565b505050565b60007f80ac58cd000000000000000000000000000000000000000000000000000000007bffffffffffffffffffffffffffffffffffffffffffffffffffffffff1916827bffffffffffffffffffffffffffffffffffffffffffffffffffffffff1916148061192657507f5b5e139f000000000000000000000000000000000000000000000000000000007bffffffffffffffffffffffffffffffffffffffffffffffffffffffff1916827bffffffffffffffffffffffffffffffffffffffffffffffffffffffff1916145b80611936575061193582612024565b5b9050919050565b600080611949846114a0565b9050600073ffffffffffffffffffffffffffffffffffffffff168373ffffffffffffffffffffffffffffffffffffffff161461198b5761198a81848661208e565b5b600073ffffffffffffffffffffffffffffffffffffffff168173ffffffffffffffffffffffffffffffffffffffff1614611a1c576119cd6000856000806114dd565b6001600360008373ffffffffffffffffffffffffffffffffffffffff1673ffffffffffffffffffffffffffffffffffffffff168152602001908152602001600020600082825403925050819055505b600073ffffffffffffffffffffffffffffffffffffffff168573ffffffffffffffffffffffffffffffffffffffff1614611a9f576001600360008773ffffffffffffffffffffffffffffffffffffffff1673ffffffffffffffffffffffffffffffffffffffff168152602001908152602001600020600082825401925050819055505b846002600086815260200190815260200160002060006101000a81548173ffffffffffffffffffffffffffffffffffffffff021916908373ffffffffffffffffffffffffffffffffffffffff160217905550838573ffffffffffffffffffffffffffffffffffffffff168273ffffffffffffffffffffffffffffffffffffffff167fddf252ad1be2c89b69c2b068fc378daa952ba7f163c4a11628f55a4df523b3ef60405160405180910390a4809150509392505050565b600a80549050600b600083815260200190815260200160002081905550600a81908060018154018082558091505060019003906000526020600020016000909190919091505550565b6000611bab836108cb565b9050600060096000848152602001908152602001600020549050818114611c90576000600860008673ffffffffffffffffffffffffffffffffffffffff1673ffffffffffffffffffffffffffffffffffffffff168152602001908152602001600020600084815260200190815260200160002054905080600860008773ffffffffffffffffffffffffffffffffffffffff1673ffffffffffffffffffffffffffffffffffffffff168152602001908152602001600020600084815260200190815260200160002081905550816009600083815260200190815260200160002081905550505b6009600084815260200190815260200160002060009055600860008573ffffffffffffffffffffffffffffffffffffffff1673ffffffffffffffffffffffffffffffffffffffff16815260200190815260200160002060008381526020019081526020016000206000905550505050565b60006001600a80549050611d159190612ffc565b90506000600b60008481526020019081526020016000205490506000600a8381548110611d4557611d44612aca565b5b9060005260206000200154905080600a8381548110611d6757611d66612aca565b5b906000526020600020018190555081600b600083815260200190815260200160002081905550600b600085815260200190815260200160002060009055600a805480611db657611db5613030565b5b6001900381819060005260206000200160009055905550505050565b60006001611ddf846108cb565b611de99190612ffc565b905081600860008573ffffffffffffffffffffffffffffffffffffffff1673ffffffffffffffffffffffffffffffffffffffff168152602001908152602001600020600083815260200190815260200160002081905550806009600084815260200190815260200160002081905550505050565b606060006001611e6c84612152565b01905060008167ffffffffffffffff811115611e8b57611e8a612732565b5b6040519080825280601f01601f191660200182016040528015611ebd5781602001600182028036833780820191505090505b509050600082602001820190505b600115611f20578080600190039150507f3031323334353637383961626364656600000000000000000000000000000000600a86061a8153600a8581611f1457611f13612bdb565b5b04945060008503611ecb575b819350505050919050565b600073ffffffffffffffffffffffffffffffffffffffff168273ffffffffffffffffffffffffffffffffffffffff1603611f9d5760006040517f64a0ae92000000000000000000000000000000000000000000000000000000008152600401611f94919061258b565b60405180910390fd5b6000611fab83836000610de8565b9050600073ffffffffffffffffffffffffffffffffffffffff168173ffffffffffffffffffffffffffffffffffffffff161461201f5760006040517f73c6ac6e000000000000000000000000000000000000000000000000000000008152600401612016919061258b565b60405180910390fd5b505050565b60007f01ffc9a7000000000000000000000000000000000000000000000000000000007bffffffffffffffffffffffffffffffffffffffffffffffffffffffff1916827bffffffffffffffffffffffffffffffffffffffffffffffffffffffff1916149050919050565b6120998383836122a5565b61214d57600073ffffffffffffffffffffffffffffffffffffffff168373ffffffffffffffffffffffffffffffffffffffff160361210e57806040517f7e2732890000000000000000000000000000000000000000000000000000000081526004016121059190612621565b60405180910390fd5b81816040517f177e802f000000000000000000000000000000000000000000000000000000008152600401612144929190612aa1565b60405180910390fd5b505050565b600080600090507a184f03e93ff9f4daa797ed6e38ed64bf6a1f01000000000000000083106121b0577a184f03e93ff9f4daa797ed6e38ed64bf6a1f01000000000000000083816121a6576121a5612bdb565b5b0492506040810190505b6d04ee2d6d415b85acef810000000083106121ed576d04ee2d6d415b85acef810000000083816121e3576121e2612bdb565b5b0492506020810190505b662386f26fc10000831061221c57662386f26fc10000838161221257612211612bdb565b5b0492506010810190505b6305f5e1008310612245576305f5e100838161223b5761223a612bdb565b5b0492506008810190505b612710831061226a5761271083816122605761225f612bdb565b5b0492506004810190505b6064831061228d576064838161228357612282612bdb565b5b0492506002810190505b600a831061229c576001810190505b80915050919050565b60008073ffffffffffffffffffffffffffffffffffffffff168373ffffffffffffffffffffffffffffffffffffffff161415801561235d57508273ffffffffffffffffffffffffffffffffffffffff168473ffffffffffffffffffffffffffffffffffffffff16148061231e575061231d8484610b2e565b5b8061235c57508273ffffffffffffffffffffffffffffffffffffffff1661234483610d91565b73ffffffffffffffffffffffffffffffffffffffff16145b5b90509392505050565b6000604051905090565b600080fd5b600080fd5b60007fffffffff0000000000000000000000000000000000000000000000000000000082169050919050565b6123af8161237a565b81146123ba57600080fd5b50565b6000813590506123cc816123a6565b92915050565b6000602082840312156123e8576123e7612370565b5b60006123f6848285016123bd565b91505092915050565b60008115159050919050565b612414816123ff565b82525050565b600060208201905061242f600083018461240b565b92915050565b600081519050919050565b600082825260208201905092915050565b60005b8381101561246f578082015181840152602081019050612454565b60008484015250505050565b6000601f19601f8301169050919050565b600061249782612435565b6124a18185612440565b93506124b1818560208601612451565b6124ba8161247b565b840191505092915050565b600060208201905081810360008301526124df818461248c565b905092915050565b6000819050919050565b6124fa816124e7565b811461250557600080fd5b50565b600081359050612517816124f1565b92915050565b60006020828403121561253357612532612370565b5b600061254184828501612508565b91505092915050565b600073ffffffffffffffffffffffffffffffffffffffff82169050919050565b60006125758261254a565b9050919050565b6125858161256a565b82525050565b60006020820190506125a0600083018461257c565b92915050565b6125af8161256a565b81146125ba57600080fd5b50565b6000813590506125cc816125a6565b92915050565b600080604083850312156125e9576125e8612370565b5b60006125f7858286016125bd565b925050602061260885828601612508565b9150509250929050565b61261b816124e7565b82525050565b60006020820190506126366000830184612612565b92915050565b60008060006060848603121561265557612654612370565b5b6000612663868287016125bd565b9350506020612674868287016125bd565b925050604061268586828701612508565b9150509250925092565b6000602082840312156126a5576126a4612370565b5b60006126b3848285016125bd565b91505092915050565b6126c5816123ff565b81146126d057600080fd5b50565b6000813590506126e2816126bc565b92915050565b600080604083850312156126ff576126fe612370565b5b600061270d858286016125bd565b925050602061271e858286016126d3565b9150509250929050565b600080fd5b600080fd5b7f4e487b7100000000000000000000000000000000000000000000000000000000600052604160045260246000fd5b61276a8261247b565b810181811067ffffffffffffffff8211171561278957612788612732565b5b80604052505050565b600061279c612366565b90506127a88282612761565b919050565b600067ffffffffffffffff8211156127c8576127c7612732565b5b6127d18261247b565b9050602081019050919050565b82818337600083830152505050565b60006128006127fb846127ad565b612792565b90508281526020810184848401111561281c5761281b61272d565b5b6128278482856127de565b509392505050565b600082601f83011261284457612843612728565b5b81356128548482602086016127ed565b91505092915050565b6000806000806080858703121561287757612876612370565b5b6000612885878288016125bd565b9450506020612896878288016125bd565b93505060406128a787828801612508565b925050606085013567ffffffffffffffff8111156128c8576128c7612375565b5b6128d48782880161282f565b91505092959194509250565b600080604083850312156128f7576128f6612370565b5b6000612905858286016125bd565b9250506020612916858286016125bd565b9150509250929050565b600067ffffffffffffffff82111561293b5761293a612732565b5b6129448261247b565b9050602081019050919050565b600061296461295f84612920565b612792565b9050828152602081018484840111156129805761297f61272d565b5b61298b8482856127de565b509392505050565b600082601f8301126129a8576129a7612728565b5b81356129b8848260208601612951565b91505092915050565b6000602082840312156129d7576129d6612370565b5b600082013567ffffffffffffffff8111156129f5576129f4612375565b5b612a0184828501612993565b91505092915050565b7f4e487b7100000000000000000000000000000000000000000000000000000000600052602260045260246000fd5b60006002820490506001821680612a5157607f821691505b602082108103612a6457612a63612a0a565b5b50919050565b6000606082019050612a7f600083018661257c565b612a8c6020830185612612565b612a99604083018461257c565b949350505050565b6000604082019050612ab6600083018561257c565b612ac36020830184612612565b9392505050565b7f4e487b7100000000000000000000000000000000000000000000000000000000600052603260045260246000fd5b7f4e487b7100000000000000000000000000000000000000000000000000000000600052601160045260246000fd5b6000612b33826124e7565b915060008203612b4657612b45612af9565b5b600182039050919050565b6000612b5c826124e7565b91507fffffffffffffffffffffffffffffffffffffffffffffffffffffffffffffffff8203612b8e57612b8d612af9565b5b600182019050919050565b6000612ba4826124e7565b9150612baf836124e7565b9250828202612bbd816124e7565b91508282048414831517612bd457612bd3612af9565b5b5092915050565b7f4e487b7100000000000000000000000000000000000000000000000000000000600052601260045260246000fd5b6000612c15826124e7565b9150612c20836124e7565b925082612c3057612c2f612bdb565b5b828204905092915050565b600081519050919050565b600082825260208201905092915050565b6000612c6282612c3b565b612c6c8185612c46565b9350612c7c818560208601612451565b612c858161247b565b840191505092915050565b6000608082019050612ca5600083018761257c565b612cb2602083018661257c565b612cbf6040830185612612565b8181036060830152612cd18184612c57565b905095945050505050565b600081519050612ceb816123a6565b92915050565b600060208284031215612d0757612d06612370565b5b6000612d1584828501612cdc565b91505092915050565b600081905092915050565b6000612d3482612435565b612d3e8185612d1e565b9350612d4e818560208601612451565b80840191505092915050565b6000612d668285612d29565b9150612d728284612d29565b91508190509392505050565b60008190508160005260206000209050919050565b60006020601f8301049050919050565b600082821b905092915050565b600060088302612de07fffffffffffffffffffffffffffffffffffffffffffffffffffffffffffffffff82612da3565b612dea8683612da3565b95508019841693508086168417925050509392505050565b6000819050919050565b6000612e27612e22612e1d846124e7565b612e02565b6124e7565b9050919050565b6000819050919050565b612e4183612e0c565b612e55612e4d82612e2e565b848454612db0565b825550505050565b600090565b612e6a612e5d565b612e75818484612e38565b505050565b5b81811015612e9957612e8e600082612e62565b600181019050612e7b565b5050565b601f821115612ede57612eaf81612d7e565b612eb884612d93565b81016020851015612ec7578190505b612edb612ed385612d93565b830182612e7a565b50505b505050565b600082821c905092915050565b6000612f0160001984600802612ee3565b1980831691505092915050565b6000612f1a8383612ef0565b9150826002028217905092915050565b612f3382612435565b67ffffffffffffffff811115612f4c57612f4b612732565b5b612f568254612a39565b612f61828285612e9d565b600060209050601f831160018114612f945760008415612f82578287015190505b612f8c8582612f0e565b865550612ff4565b601f198416612fa286612d7e565b60005b82811015612fca57848901518255600182019150602085019450602081019050612fa5565b86831015612fe75784890151612fe3601f891682612ef0565b8355505b6001600288020188555050505b505050505050565b6000613007826124e7565b9150613012836124e7565b925082820390508181111561302a57613029612af9565b5b92915050565b7f4e487b7100000000000000000000000000000000000000000000000000000000600052603160045260246000fdfea2646970667358221220aa8a1f0bde4a6c44b0d936cd2c40a4c35b9328316d989a641a6d5190ba0c7cd664736f6c63430008180033",
  "linkReferences": {},
  "deployedLinkReferences": {}
}