{
  "_format": "hh-sol-artifact-1",
  "contractName": "MyNFT",
  "sourceName": "contracts/MyNFT.sol",
  "abi": [
    {
      "inputs": [],
      "stateMutability": "payable",
      "type": "constructor"
    },
    {
      "anonymous": false,
      "inputs": [
        {
          "indexed": true,
          "internalType": "address",
          "name": "owner",
          "type": "address"
        },
        {
          "indexed": true,
          "internalType": "address",
          "name": "approved",
          "type": "address"
        },
        {
          "indexed": true,
          "internalType": "uint256",
          "name": "tokenId",
          "type": "uint256"
        }
      ],
      "name": "Approval",
      "type": "event"
    },
    {
      "anonymous": false,
      "inputs": [
        {
          "indexed": true,
          "internalType": "address",
          "name": "owner",
          "type": "address"
        },
        {
          "indexed": true,
          "internalType": "address",
          "name": "operator",
          "type": "address"
        },
        {
          "indexed": false,
          "internalType": "bool",
          "name": "approved",
          "type": "bool"
        }
      ],
      "name": "ApprovalForAll",
      "type": "event"
    },
    {
      "anonymous": false,
      "inputs": [
        {
          "indexed": false,
          "internalType": "uint256",
          "name": "_fromTokenId",
          "type": "uint256"
        },
        {
          "indexed": false,
          "internalType": "uint256",
          "name": "_toTokenId",
          "type": "uint256"
        }
      ],
      "name": "BatchMetadataUpdate",
      "type": "event"
    },
    {
      "anonymous": false,
      "inputs": [
        {
          "indexed": false,
          "internalType": "uint256",
          "name": "_tokenId",
          "type": "uint256"
        }
      ],
      "name": "MetadataUpdate",
      "type": "event"
    },
    {
      "anonymous": false,
      "inputs": [
        {
          "indexed": true,
          "internalType": "address",
          "name": "previousOwner",
          "type": "address"
        },
        {
          "indexed": true,
          "internalType": "address",
          "name": "newOwner",
          "type": "address"
        }
      ],
      "name": "OwnershipTransferred",
      "type": "event"
    },
    {
      "anonymous": false,
      "inputs": [
        {
          "indexed": true,
          "internalType": "address",
          "name": "from",
          "type": "address"
        },
        {
          "indexed": true,
          "internalType": "address",
          "name": "to",
          "type": "address"
        },
        {
          "indexed": true,
          "internalType": "uint256",
          "name": "tokenId",
          "type": "uint256"
        }
      ],
      "name": "Transfer",
      "type": "event"
    },
    {
      "inputs": [],
      "name": "_tokenIds",
      "outputs": [
        {
          "internalType": "uint256",
          "name": "_value",
          "type": "uint256"
        }
      ],
      "stateMutability": "view",
      "type": "function"
    },
    {
      "inputs": [
        {
          "internalType": "address",
          "name": "to",
          "type": "address"
        },
        {
          "internalType": "uint256",
          "name": "tokenId",
          "type": "uint256"
        }
      ],
      "name": "approve",
      "outputs": [],
      "stateMutability": "nonpayable",
      "type": "function"
    },
    {
      "inputs": [
        {
          "internalType": "address",
          "name": "owner",
          "type": "address"
        }
      ],
      "name": "balanceOf",
      "outputs": [
        {
          "internalType": "uint256",
          "name": "",
          "type": "uint256"
        }
      ],
      "stateMutability": "view",
      "type": "function"
    },
    {
      "inputs": [
        {
          "internalType": "uint256",
          "name": "tokenId",
          "type": "uint256"
        },
        {
          "internalType": "uint256",
          "name": "mintAmount",
          "type": "uint256"
        }
      ],
      "name": "burn1",
      "outputs": [],
      "stateMutability": "nonpayable",
      "type": "function"
    },
    {
      "inputs": [
        {
          "internalType": "uint256",
          "name": "tokenId",
          "type": "uint256"
        }
      ],
      "name": "getApproved",
      "outputs": [
        {
          "internalType": "address",
          "name": "",
          "type": "address"
        }
      ],
      "stateMutability": "view",
      "type": "function"
    },
    {
      "inputs": [
        {
          "internalType": "address",
          "name": "owner",
          "type": "address"
        },
        {
          "internalType": "address",
          "name": "operator",
          "type": "address"
        }
      ],
      "name": "isApprovedForAll",
      "outputs": [
        {
          "internalType": "bool",
          "name": "",
          "type": "bool"
        }
      ],
      "stateMutability": "view",
      "type": "function"
    },
    {
      "inputs": [
        {
          "internalType": "string",
          "name": "tokenURI",
          "type": "string"
        }
      ],
      "name": "mintNFT",
      "outputs": [
        {
          "internalType": "uint256",
          "name": "",
          "type": "uint256"
        }
      ],
      "stateMutability": "payable",
      "type": "function"
    },
    {
      "inputs": [],
      "name": "name",
      "outputs": [
        {
          "internalType": "string",
          "name": "",
          "type": "string"
        }
      ],
      "stateMutability": "view",
      "type": "function"
    },
    {
      "inputs": [],
      "name": "owner",
      "outputs": [
        {
          "internalType": "address",
          "name": "",
          "type": "address"
        }
      ],
      "stateMutability": "view",
      "type": "function"
    },
    {
      "inputs": [
        {
          "internalType": "uint256",
          "name": "tokenId",
          "type": "uint256"
        }
      ],
      "name": "ownerOf",
      "outputs": [
        {
          "internalType": "address",
          "name": "",
          "type": "address"
        }
      ],
      "stateMutability": "view",
      "type": "function"
    },
    {
      "inputs": [],
      "name": "renounceOwnership",
      "outputs": [],
      "stateMutability": "nonpayable",
      "type": "function"
    },
    {
      "inputs": [
        {
          "internalType": "address",
          "name": "from",
          "type": "address"
        },
        {
          "internalType": "address",
          "name": "to",
          "type": "address"
        },
        {
          "internalType": "uint256",
          "name": "tokenId",
          "type": "uint256"
        }
      ],
      "name": "safeTransferFrom",
      "outputs": [],
      "stateMutability": "nonpayable",
      "type": "function"
    },
    {
      "inputs": [
        {
          "internalType": "address",
          "name": "from",
          "type": "address"
        },
        {
          "internalType": "address",
          "name": "to",
          "type": "address"
        },
        {
          "internalType": "uint256",
          "name": "tokenId",
          "type": "uint256"
        },
        {
          "internalType": "bytes",
          "name": "data",
          "type": "bytes"
        }
      ],
      "name": "safeTransferFrom",
      "outputs": [],
      "stateMutability": "nonpayable",
      "type": "function"
    },
    {
      "inputs": [
        {
          "internalType": "address",
          "name": "operator",
          "type": "address"
        },
        {
          "internalType": "bool",
          "name": "approved",
          "type": "bool"
        }
      ],
      "name": "setApprovalForAll",
      "outputs": [],
      "stateMutability": "nonpayable",
      "type": "function"
    },
    {
      "inputs": [
        {
          "internalType": "bytes4",
          "name": "interfaceId",
          "type": "bytes4"
        }
      ],
      "name": "supportsInterface",
      "outputs": [
        {
          "internalType": "bool",
          "name": "",
          "type": "bool"
        }
      ],
      "stateMutability": "view",
      "type": "function"
    },
    {
      "inputs": [],
      "name": "symbol",
      "outputs": [
        {
          "internalType": "string",
          "name": "",
          "type": "string"
        }
      ],
      "stateMutability": "view",
      "type": "function"
    },
    {
      "inputs": [
        {
          "internalType": "uint256",
          "name": "tokenId",
          "type": "uint256"
        }
      ],
      "name": "tokenURI",
      "outputs": [
        {
          "internalType": "string",
          "name": "",
          "type": "string"
        }
      ],
      "stateMutability": "view",
      "type": "function"
    },
    {
      "inputs": [
        {
          "internalType": "address",
          "name": "from",
          "type": "address"
        },
        {
          "internalType": "address",
          "name": "to",
          "type": "address"
        },
        {
          "internalType": "uint256",
          "name": "tokenId",
          "type": "uint256"
        }
      ],
      "name": "transferFrom",
      "outputs": [],
      "stateMutability": "nonpayable",
      "type": "function"
    },
    {
      "inputs": [
        {
          "internalType": "address",
          "name": "newOwner",
          "type": "address"
        }
      ],
      "name": "transferOwnership",
      "outputs": [],
      "stateMutability": "nonpayable",
      "type": "function"
    }
  ],
  "bytecode": "0x60806040526040518060400160405280600781526020017f546573746e6574000000000000000000000000000000000000000000000000008152506040518060400160405280600481526020017f5445535400000000000000000000000000000000000000000000000000000000815250816000908162000081919062000404565b50806001908162000093919062000404565b505050620000b6620000aa620000bc60201b60201c565b620000c460201b60201c565b620004eb565b600033905090565b6000600760009054906101000a900473ffffffffffffffffffffffffffffffffffffffff16905081600760006101000a81548173ffffffffffffffffffffffffffffffffffffffff021916908373ffffffffffffffffffffffffffffffffffffffff1602179055508173ffffffffffffffffffffffffffffffffffffffff168173ffffffffffffffffffffffffffffffffffffffff167f8be0079c531659141344cd1fd0a4f28419497f9722a3daafe3b4186f6b6457e060405160405180910390a35050565b600081519050919050565b7f4e487b7100000000000000000000000000000000000000000000000000000000600052604160045260246000fd5b7f4e487b7100000000000000000000000000000000000000000000000000000000600052602260045260246000fd5b600060028204905060018216806200020c57607f821691505b602082108103620002225762000221620001c4565b5b50919050565b60008190508160005260206000209050919050565b60006020601f8301049050919050565b600082821b905092915050565b6000600883026200028c7fffffffffffffffffffffffffffffffffffffffffffffffffffffffffffffffff826200024d565b6200029886836200024d565b95508019841693508086168417925050509392505050565b6000819050919050565b6000819050919050565b6000620002e5620002df620002d984620002b0565b620002ba565b620002b0565b9050919050565b6000819050919050565b6200030183620002c4565b620003196200031082620002ec565b8484546200025a565b825550505050565b600090565b6200033062000321565b6200033d818484620002f6565b505050565b5b8181101562000365576200035960008262000326565b60018101905062000343565b5050565b601f821115620003b4576200037e8162000228565b62000389846200023d565b8101602085101562000399578190505b620003b1620003a8856200023d565b83018262000342565b50505b505050565b600082821c905092915050565b6000620003d960001984600802620003b9565b1980831691505092915050565b6000620003f48383620003c6565b9150826002028217905092915050565b6200040f826200018a565b67ffffffffffffffff8111156200042b576200042a62000195565b5b620004378254620001f3565b6200044482828562000369565b600060209050601f8311600181146200047c576000841562000467578287015190505b620004738582620003e6565b865550620004e3565b601f1984166200048c8662000228565b60005b82811015620004b6578489015182556001820191506020850194506020810190506200048f565b86831015620004d65784890151620004d2601f891682620003c6565b8355505b6001600288020188555050505b505050505050565b61327880620004fb6000396000f3fe6080604052600436106101145760003560e01c8063715018a6116100a0578063b88d4fde11610064578063b88d4fde1461039d578063c87b56dd146103c6578063e985e9c514610403578063f2fde38b14610440578063fb37e8831461046957610114565b8063715018a6146102dc5780638da5cb5b146102f357806395d89b411461031e578063a22cb46514610349578063aa46a4001461037257610114565b806323b872dd116100e757806323b872dd146101e75780633fc77e751461021057806342842e0e146102395780636352211e1461026257806370a082311461029f57610114565b806301ffc9a71461011957806306fdde0314610156578063081812fc14610181578063095ea7b3146101be575b600080fd5b34801561012557600080fd5b50610140600480360381019061013b919061203c565b610499565b60405161014d9190612084565b60405180910390f35b34801561016257600080fd5b5061016b6104fa565b604051610178919061212f565b60405180910390f35b34801561018d57600080fd5b506101a860048036038101906101a39190612187565b61058c565b6040516101b591906121f5565b60405180910390f35b3480156101ca57600080fd5b506101e560048036038101906101e0919061223c565b6105d2565b005b3480156101f357600080fd5b5061020e6004803603810190610209919061227c565b6106e9565b005b34801561021c57600080fd5b50610237600480360381019061023291906122cf565b610749565b005b34801561024557600080fd5b50610260600480360381019061025b919061227c565b61079d565b005b34801561026e57600080fd5b5061028960048036038101906102849190612187565b6107bd565b60405161029691906121f5565b60405180910390f35b3480156102ab57600080fd5b506102c660048036038101906102c1919061230f565b610843565b6040516102d3919061234b565b60405180910390f35b3480156102e857600080fd5b506102f16108fa565b005b3480156102ff57600080fd5b5061030861090e565b60405161031591906121f5565b60405180910390f35b34801561032a57600080fd5b50610333610938565b604051610340919061212f565b60405180910390f35b34801561035557600080fd5b50610370600480360381019061036b9190612392565b6109ca565b005b34801561037e57600080fd5b506103876109e0565b604051610394919061234b565b60405180910390f35b3480156103a957600080fd5b506103c460048036038101906103bf9190612507565b6109ec565b005b3480156103d257600080fd5b506103ed60048036038101906103e89190612187565b610a4e565b6040516103fa919061212f565b60405180910390f35b34801561040f57600080fd5b5061042a6004803603810190610425919061258a565b610b60565b6040516104379190612084565b60405180910390f35b34801561044c57600080fd5b506104676004803603810190610462919061230f565b610bf4565b005b610483600480360381019061047e919061266b565b610c77565b604051610490919061234b565b60405180910390f35b6000634906490660e01b7bffffffffffffffffffffffffffffffffffffffffffffffffffffffff1916827bffffffffffffffffffffffffffffffffffffffffffffffffffffffff191614806104f357506104f282610cae565b5b9050919050565b606060008054610509906126e3565b80601f0160208091040260200160405190810160405280929190818152602001828054610535906126e3565b80156105825780601f1061055757610100808354040283529160200191610582565b820191906000526020600020905b81548152906001019060200180831161056557829003601f168201915b5050505050905090565b600061059782610d90565b6004600083815260200190815260200160002060009054906101000a900473ffffffffffffffffffffffffffffffffffffffff169050919050565b60006105dd826107bd565b90508073ffffffffffffffffffffffffffffffffffffffff168373ffffffffffffffffffffffffffffffffffffffff160361064d576040517f08c379a000000000000000000000000000000000000000000000000000000000815260040161064490612786565b60405180910390fd5b8073ffffffffffffffffffffffffffffffffffffffff1661066c610ddb565b73ffffffffffffffffffffffffffffffffffffffff16148061069b575061069a81610695610ddb565b610b60565b5b6106da576040517f08c379a00000000000000000000000000000000000000000000000000000000081526004016106d190612818565b60405180910390fd5b6106e48383610de3565b505050565b6106fa6106f4610ddb565b82610e9c565b610739576040517f08c379a0000000000000000000000000000000000000000000000000000000008152600401610730906128aa565b60405180910390fd5b610744838383610f31565b505050565b6107528261122a565b3373ffffffffffffffffffffffffffffffffffffffff166108fc829081150290604051600060405180830381858888f19350505050158015610798573d6000803e3d6000fd5b505050565b6107b8838383604051806020016040528060008152506109ec565b505050565b6000806107c98361127d565b9050600073ffffffffffffffffffffffffffffffffffffffff168173ffffffffffffffffffffffffffffffffffffffff160361083a576040517f08c379a000000000000000000000000000000000000000000000000000000000815260040161083190612916565b60405180910390fd5b80915050919050565b60008073ffffffffffffffffffffffffffffffffffffffff168273ffffffffffffffffffffffffffffffffffffffff16036108b3576040517f08c379a00000000000000000000000000000000000000000000000000000000081526004016108aa906129a8565b60405180910390fd5b600360008373ffffffffffffffffffffffffffffffffffffffff1673ffffffffffffffffffffffffffffffffffffffff168152602001908152602001600020549050919050565b6109026112ba565b61090c6000611338565b565b6000600760009054906101000a900473ffffffffffffffffffffffffffffffffffffffff16905090565b606060018054610947906126e3565b80601f0160208091040260200160405190810160405280929190818152602001828054610973906126e3565b80156109c05780601f10610995576101008083540402835291602001916109c0565b820191906000526020600020905b8154815290600101906020018083116109a357829003601f168201915b5050505050905090565b6109dc6109d5610ddb565b83836113fe565b5050565b60088060000154905081565b6109fd6109f7610ddb565b83610e9c565b610a3c576040517f08c379a0000000000000000000000000000000000000000000000000000000008152600401610a33906128aa565b60405180910390fd5b610a488484848461156a565b50505050565b6060610a5982610d90565b6000600660008481526020019081526020016000208054610a79906126e3565b80601f0160208091040260200160405190810160405280929190818152602001828054610aa5906126e3565b8015610af25780601f10610ac757610100808354040283529160200191610af2565b820191906000526020600020905b815481529060010190602001808311610ad557829003601f168201915b505050505090506000610b036115c6565b90506000815103610b18578192505050610b5b565b600082511115610b4d578082604051602001610b35929190612a04565b60405160208183030381529060405292505050610b5b565b610b56846115dd565b925050505b919050565b6000600560008473ffffffffffffffffffffffffffffffffffffffff1673ffffffffffffffffffffffffffffffffffffffff16815260200190815260200160002060008373ffffffffffffffffffffffffffffffffffffffff1673ffffffffffffffffffffffffffffffffffffffff16815260200190815260200160002060009054906101000a900460ff16905092915050565b610bfc6112ba565b600073ffffffffffffffffffffffffffffffffffffffff168173ffffffffffffffffffffffffffffffffffffffff1603610c6b576040517f08c379a0000000000000000000000000000000000000000000000000000000008152600401610c6290612a9a565b60405180910390fd5b610c7481611338565b50565b6000610c836008611645565b6000610c8f600861165b565b9050610c9b3382611669565b610ca58184611687565b80915050919050565b60007f80ac58cd000000000000000000000000000000000000000000000000000000007bffffffffffffffffffffffffffffffffffffffffffffffffffffffff1916827bffffffffffffffffffffffffffffffffffffffffffffffffffffffff19161480610d7957507f5b5e139f000000000000000000000000000000000000000000000000000000007bffffffffffffffffffffffffffffffffffffffffffffffffffffffff1916827bffffffffffffffffffffffffffffffffffffffffffffffffffffffff1916145b80610d895750610d888261172b565b5b9050919050565b610d9981611795565b610dd8576040517f08c379a0000000000000000000000000000000000000000000000000000000008152600401610dcf90612916565b60405180910390fd5b50565b600033905090565b816004600083815260200190815260200160002060006101000a81548173ffffffffffffffffffffffffffffffffffffffff021916908373ffffffffffffffffffffffffffffffffffffffff160217905550808273ffffffffffffffffffffffffffffffffffffffff16610e56836107bd565b73ffffffffffffffffffffffffffffffffffffffff167f8c5be1e5ebec7d5bd14f71427d1e84f3dd0314c0f7b2291e5b200ac8c7c3b92560405160405180910390a45050565b600080610ea8836107bd565b90508073ffffffffffffffffffffffffffffffffffffffff168473ffffffffffffffffffffffffffffffffffffffff161480610eea5750610ee98185610b60565b5b80610f2857508373ffffffffffffffffffffffffffffffffffffffff16610f108461058c565b73ffffffffffffffffffffffffffffffffffffffff16145b91505092915050565b8273ffffffffffffffffffffffffffffffffffffffff16610f51826107bd565b73ffffffffffffffffffffffffffffffffffffffff1614610fa7576040517f08c379a0000000000000000000000000000000000000000000000000000000008152600401610f9e90612b2c565b60405180910390fd5b600073ffffffffffffffffffffffffffffffffffffffff168273ffffffffffffffffffffffffffffffffffffffff1603611016576040517f08c379a000000000000000000000000000000000000000000000000000000000815260040161100d90612bbe565b60405180910390fd5b61102383838360016117d6565b8273ffffffffffffffffffffffffffffffffffffffff16611043826107bd565b73ffffffffffffffffffffffffffffffffffffffff1614611099576040517f08c379a000000000000000000000000000000000000000000000000000000000815260040161109090612b2c565b60405180910390fd5b6004600082815260200190815260200160002060006101000a81549073ffffffffffffffffffffffffffffffffffffffff02191690556001600360008573ffffffffffffffffffffffffffffffffffffffff1673ffffffffffffffffffffffffffffffffffffffff168152602001908152602001600020600082825403925050819055506001600360008473ffffffffffffffffffffffffffffffffffffffff1673ffffffffffffffffffffffffffffffffffffffff16815260200190815260200160002060008282540192505081905550816002600083815260200190815260200160002060006101000a81548173ffffffffffffffffffffffffffffffffffffffff021916908373ffffffffffffffffffffffffffffffffffffffff160217905550808273ffffffffffffffffffffffffffffffffffffffff168473ffffffffffffffffffffffffffffffffffffffff167fddf252ad1be2c89b69c2b068fc378daa952ba7f163c4a11628f55a4df523b3ef60405160405180910390a461122583838360016117dc565b505050565b611233816117e2565b6000600660008381526020019081526020016000208054611253906126e3565b90501461127a576006600082815260200190815260200160002060006112799190611f73565b5b50565b60006002600083815260200190815260200160002060009054906101000a900473ffffffffffffffffffffffffffffffffffffffff169050919050565b6112c2610ddb565b73ffffffffffffffffffffffffffffffffffffffff166112e061090e565b73ffffffffffffffffffffffffffffffffffffffff1614611336576040517f08c379a000000000000000000000000000000000000000000000000000000000815260040161132d90612c2a565b60405180910390fd5b565b6000600760009054906101000a900473ffffffffffffffffffffffffffffffffffffffff16905081600760006101000a81548173ffffffffffffffffffffffffffffffffffffffff021916908373ffffffffffffffffffffffffffffffffffffffff1602179055508173ffffffffffffffffffffffffffffffffffffffff168173ffffffffffffffffffffffffffffffffffffffff167f8be0079c531659141344cd1fd0a4f28419497f9722a3daafe3b4186f6b6457e060405160405180910390a35050565b8173ffffffffffffffffffffffffffffffffffffffff168373ffffffffffffffffffffffffffffffffffffffff160361146c576040517f08c379a000000000000000000000000000000000000000000000000000000000815260040161146390612c96565b60405180910390fd5b80600560008573ffffffffffffffffffffffffffffffffffffffff1673ffffffffffffffffffffffffffffffffffffffff16815260200190815260200160002060008473ffffffffffffffffffffffffffffffffffffffff1673ffffffffffffffffffffffffffffffffffffffff16815260200190815260200160002060006101000a81548160ff0219169083151502179055508173ffffffffffffffffffffffffffffffffffffffff168373ffffffffffffffffffffffffffffffffffffffff167f17307eab39ab6107e8899845ad3d59bd9653f200f220920489ca2b5937696c318360405161155d9190612084565b60405180910390a3505050565b611575848484610f31565b61158184848484611930565b6115c0576040517f08c379a00000000000000000000000000000000000000000000000000000000081526004016115b790612d28565b60405180910390fd5b50505050565b606060405180602001604052806000815250905090565b60606115e882610d90565b60006115f26115c6565b90506000815111611612576040518060200160405280600081525061163d565b8061161c84611ab7565b60405160200161162d929190612a04565b6040516020818303038152906040525b915050919050565b6001816000016000828254019250508190555050565b600081600001549050919050565b611683828260405180602001604052806000815250611b85565b5050565b61169082611795565b6116cf576040517f08c379a00000000000000000000000000000000000000000000000000000000081526004016116c690612dba565b60405180910390fd5b806006600084815260200190815260200160002090816116ef9190612f86565b507ff8e1a15aba9398e019f0b49df1a4fde98ee17ae345cb5f6b5e2c27f5033e8ce78260405161171f919061234b565b60405180910390a15050565b60007f01ffc9a7000000000000000000000000000000000000000000000000000000007bffffffffffffffffffffffffffffffffffffffffffffffffffffffff1916827bffffffffffffffffffffffffffffffffffffffffffffffffffffffff1916149050919050565b60008073ffffffffffffffffffffffffffffffffffffffff166117b78361127d565b73ffffffffffffffffffffffffffffffffffffffff1614159050919050565b50505050565b50505050565b60006117ed826107bd565b90506117fd8160008460016117d6565b611806826107bd565b90506004600083815260200190815260200160002060006101000a81549073ffffffffffffffffffffffffffffffffffffffff02191690556001600360008373ffffffffffffffffffffffffffffffffffffffff1673ffffffffffffffffffffffffffffffffffffffff168152602001908152602001600020600082825403925050819055506002600083815260200190815260200160002060006101000a81549073ffffffffffffffffffffffffffffffffffffffff021916905581600073ffffffffffffffffffffffffffffffffffffffff168273ffffffffffffffffffffffffffffffffffffffff167fddf252ad1be2c89b69c2b068fc378daa952ba7f163c4a11628f55a4df523b3ef60405160405180910390a461192c8160008460016117dc565b5050565b60006119518473ffffffffffffffffffffffffffffffffffffffff16611be0565b15611aaa578373ffffffffffffffffffffffffffffffffffffffff1663150b7a0261197a610ddb565b8786866040518563ffffffff1660e01b815260040161199c94939291906130ad565b6020604051808303816000875af19250505080156119d857506040513d601f19601f820116820180604052508101906119d5919061310e565b60015b611a5a573d8060008114611a08576040519150601f19603f3d011682016040523d82523d6000602084013e611a0d565b606091505b506000815103611a52576040517f08c379a0000000000000000000000000000000000000000000000000000000008152600401611a4990612d28565b60405180910390fd5b805181602001fd5b63150b7a0260e01b7bffffffffffffffffffffffffffffffffffffffffffffffffffffffff1916817bffffffffffffffffffffffffffffffffffffffffffffffffffffffff191614915050611aaf565b600190505b949350505050565b606060006001611ac684611c03565b01905060008167ffffffffffffffff811115611ae557611ae46123dc565b5b6040519080825280601f01601f191660200182016040528015611b175781602001600182028036833780820191505090505b509050600082602001820190505b600115611b7a578080600190039150507f3031323334353637383961626364656600000000000000000000000000000000600a86061a8153600a8581611b6e57611b6d61313b565b5b04945060008503611b25575b819350505050919050565b611b8f8383611d56565b611b9c6000848484611930565b611bdb576040517f08c379a0000000000000000000000000000000000000000000000000000000008152600401611bd290612d28565b60405180910390fd5b505050565b6000808273ffffffffffffffffffffffffffffffffffffffff163b119050919050565b600080600090507a184f03e93ff9f4daa797ed6e38ed64bf6a1f0100000000000000008310611c61577a184f03e93ff9f4daa797ed6e38ed64bf6a1f0100000000000000008381611c5757611c5661313b565b5b0492506040810190505b6d04ee2d6d415b85acef81000000008310611c9e576d04ee2d6d415b85acef81000000008381611c9457611c9361313b565b5b0492506020810190505b662386f26fc100008310611ccd57662386f26fc100008381611cc357611cc261313b565b5b0492506010810190505b6305f5e1008310611cf6576305f5e1008381611cec57611ceb61313b565b5b0492506008810190505b6127108310611d1b576127108381611d1157611d1061313b565b5b0492506004810190505b60648310611d3e5760648381611d3457611d3361313b565b5b0492506002810190505b600a8310611d4d576001810190505b80915050919050565b600073ffffffffffffffffffffffffffffffffffffffff168273ffffffffffffffffffffffffffffffffffffffff1603611dc5576040517f08c379a0000000000000000000000000000000000000000000000000000000008152600401611dbc906131b6565b60405180910390fd5b611dce81611795565b15611e0e576040517f08c379a0000000000000000000000000000000000000000000000000000000008152600401611e0590613222565b60405180910390fd5b611e1c6000838360016117d6565b611e2581611795565b15611e65576040517f08c379a0000000000000000000000000000000000000000000000000000000008152600401611e5c90613222565b60405180910390fd5b6001600360008473ffffffffffffffffffffffffffffffffffffffff1673ffffffffffffffffffffffffffffffffffffffff16815260200190815260200160002060008282540192505081905550816002600083815260200190815260200160002060006101000a81548173ffffffffffffffffffffffffffffffffffffffff021916908373ffffffffffffffffffffffffffffffffffffffff160217905550808273ffffffffffffffffffffffffffffffffffffffff16600073ffffffffffffffffffffffffffffffffffffffff167fddf252ad1be2c89b69c2b068fc378daa952ba7f163c4a11628f55a4df523b3ef60405160405180910390a4611f6f6000838360016117dc565b5050565b508054611f7f906126e3565b6000825580601f10611f915750611fb0565b601f016020900490600052602060002090810190611faf9190611fb3565b5b50565b5b80821115611fcc576000816000905550600101611fb4565b5090565b6000604051905090565b600080fd5b600080fd5b60007fffffffff0000000000000000000000000000000000000000000000000000000082169050919050565b61201981611fe4565b811461202457600080fd5b50565b60008135905061203681612010565b92915050565b60006020828403121561205257612051611fda565b5b600061206084828501612027565b91505092915050565b60008115159050919050565b61207e81612069565b82525050565b60006020820190506120996000830184612075565b92915050565b600081519050919050565b600082825260208201905092915050565b60005b838110156120d95780820151818401526020810190506120be565b60008484015250505050565b6000601f19601f8301169050919050565b60006121018261209f565b61210b81856120aa565b935061211b8185602086016120bb565b612124816120e5565b840191505092915050565b6000602082019050818103600083015261214981846120f6565b905092915050565b6000819050919050565b61216481612151565b811461216f57600080fd5b50565b6000813590506121818161215b565b92915050565b60006020828403121561219d5761219c611fda565b5b60006121ab84828501612172565b91505092915050565b600073ffffffffffffffffffffffffffffffffffffffff82169050919050565b60006121df826121b4565b9050919050565b6121ef816121d4565b82525050565b600060208201905061220a60008301846121e6565b92915050565b612219816121d4565b811461222457600080fd5b50565b60008135905061223681612210565b92915050565b6000806040838503121561225357612252611fda565b5b600061226185828601612227565b925050602061227285828601612172565b9150509250929050565b60008060006060848603121561229557612294611fda565b5b60006122a386828701612227565b93505060206122b486828701612227565b92505060406122c586828701612172565b9150509250925092565b600080604083850312156122e6576122e5611fda565b5b60006122f485828601612172565b925050602061230585828601612172565b9150509250929050565b60006020828403121561232557612324611fda565b5b600061233384828501612227565b91505092915050565b61234581612151565b82525050565b6000602082019050612360600083018461233c565b92915050565b61236f81612069565b811461237a57600080fd5b50565b60008135905061238c81612366565b92915050565b600080604083850312156123a9576123a8611fda565b5b60006123b785828601612227565b92505060206123c88582860161237d565b9150509250929050565b600080fd5b600080fd5b7f4e487b7100000000000000000000000000000000000000000000000000000000600052604160045260246000fd5b612414826120e5565b810181811067ffffffffffffffff82111715612433576124326123dc565b5b80604052505050565b6000612446611fd0565b9050612452828261240b565b919050565b600067ffffffffffffffff821115612472576124716123dc565b5b61247b826120e5565b9050602081019050919050565b82818337600083830152505050565b60006124aa6124a584612457565b61243c565b9050828152602081018484840111156124c6576124c56123d7565b5b6124d1848285612488565b509392505050565b600082601f8301126124ee576124ed6123d2565b5b81356124fe848260208601612497565b91505092915050565b6000806000806080858703121561252157612520611fda565b5b600061252f87828801612227565b945050602061254087828801612227565b935050604061255187828801612172565b925050606085013567ffffffffffffffff81111561257257612571611fdf565b5b61257e878288016124d9565b91505092959194509250565b600080604083850312156125a1576125a0611fda565b5b60006125af85828601612227565b92505060206125c085828601612227565b9150509250929050565b600067ffffffffffffffff8211156125e5576125e46123dc565b5b6125ee826120e5565b9050602081019050919050565b600061260e612609846125ca565b61243c565b90508281526020810184848401111561262a576126296123d7565b5b612635848285612488565b509392505050565b600082601f830112612652576126516123d2565b5b81356126628482602086016125fb565b91505092915050565b60006020828403121561268157612680611fda565b5b600082013567ffffffffffffffff81111561269f5761269e611fdf565b5b6126ab8482850161263d565b91505092915050565b7f4e487b7100000000000000000000000000000000000000000000000000000000600052602260045260246000fd5b600060028204905060018216806126fb57607f821691505b60208210810361270e5761270d6126b4565b5b50919050565b7f4552433732313a20617070726f76616c20746f2063757272656e74206f776e6560008201527f7200000000000000000000000000000000000000000000000000000000000000602082015250565b60006127706021836120aa565b915061277b82612714565b604082019050919050565b6000602082019050818103600083015261279f81612763565b9050919050565b7f4552433732313a20617070726f76652063616c6c6572206973206e6f7420746f60008201527f6b656e206f776e6572206f7220617070726f76656420666f7220616c6c000000602082015250565b6000612802603d836120aa565b915061280d826127a6565b604082019050919050565b60006020820190508181036000830152612831816127f5565b9050919050565b7f4552433732313a2063616c6c6572206973206e6f7420746f6b656e206f776e6560008201527f72206f7220617070726f76656400000000000000000000000000000000000000602082015250565b6000612894602d836120aa565b915061289f82612838565b604082019050919050565b600060208201905081810360008301526128c381612887565b9050919050565b7f4552433732313a20696e76616c696420746f6b656e2049440000000000000000600082015250565b60006129006018836120aa565b915061290b826128ca565b602082019050919050565b6000602082019050818103600083015261292f816128f3565b9050919050565b7f4552433732313a2061646472657373207a65726f206973206e6f74206120766160008201527f6c6964206f776e65720000000000000000000000000000000000000000000000602082015250565b60006129926029836120aa565b915061299d82612936565b604082019050919050565b600060208201905081810360008301526129c181612985565b9050919050565b600081905092915050565b60006129de8261209f565b6129e881856129c8565b93506129f88185602086016120bb565b80840191505092915050565b6000612a1082856129d3565b9150612a1c82846129d3565b91508190509392505050565b7f4f776e61626c653a206e6577206f776e657220697320746865207a65726f206160008201527f6464726573730000000000000000000000000000000000000000000000000000602082015250565b6000612a846026836120aa565b9150612a8f82612a28565b604082019050919050565b60006020820190508181036000830152612ab381612a77565b9050919050565b7f4552433732313a207472616e736665722066726f6d20696e636f72726563742060008201527f6f776e6572000000000000000000000000000000000000000000000000000000602082015250565b6000612b166025836120aa565b9150612b2182612aba565b604082019050919050565b60006020820190508181036000830152612b4581612b09565b9050919050565b7f4552433732313a207472616e7366657220746f20746865207a65726f2061646460008201527f7265737300000000000000000000000000000000000000000000000000000000602082015250565b6000612ba86024836120aa565b9150612bb382612b4c565b604082019050919050565b60006020820190508181036000830152612bd781612b9b565b9050919050565b7f4f776e61626c653a2063616c6c6572206973206e6f7420746865206f776e6572600082015250565b6000612c146020836120aa565b9150612c1f82612bde565b602082019050919050565b60006020820190508181036000830152612c4381612c07565b9050919050565b7f4552433732313a20617070726f766520746f2063616c6c657200000000000000600082015250565b6000612c806019836120aa565b9150612c8b82612c4a565b602082019050919050565b60006020820190508181036000830152612caf81612c73565b9050919050565b7f4552433732313a207472616e7366657220746f206e6f6e20455243373231526560008201527f63656976657220696d706c656d656e7465720000000000000000000000000000602082015250565b6000612d126032836120aa565b9150612d1d82612cb6565b604082019050919050565b60006020820190508181036000830152612d4181612d05565b9050919050565b7f45524337323155524953746f726167653a2055524920736574206f66206e6f6e60008201527f6578697374656e7420746f6b656e000000000000000000000000000000000000602082015250565b6000612da4602e836120aa565b9150612daf82612d48565b604082019050919050565b60006020820190508181036000830152612dd381612d97565b9050919050565b60008190508160005260206000209050919050565b60006020601f8301049050919050565b600082821b905092915050565b600060088302612e3c7fffffffffffffffffffffffffffffffffffffffffffffffffffffffffffffffff82612dff565b612e468683612dff565b95508019841693508086168417925050509392505050565b6000819050919050565b6000612e83612e7e612e7984612151565b612e5e565b612151565b9050919050565b6000819050919050565b612e9d83612e68565b612eb1612ea982612e8a565b848454612e0c565b825550505050565b600090565b612ec6612eb9565b612ed1818484612e94565b505050565b5b81811015612ef557612eea600082612ebe565b600181019050612ed7565b5050565b601f821115612f3a57612f0b81612dda565b612f1484612def565b81016020851015612f23578190505b612f37612f2f85612def565b830182612ed6565b50505b505050565b600082821c905092915050565b6000612f5d60001984600802612f3f565b1980831691505092915050565b6000612f768383612f4c565b9150826002028217905092915050565b612f8f8261209f565b67ffffffffffffffff811115612fa857612fa76123dc565b5b612fb282546126e3565b612fbd828285612ef9565b600060209050601f831160018114612ff05760008415612fde578287015190505b612fe88582612f6a565b865550613050565b601f198416612ffe86612dda565b60005b8281101561302657848901518255600182019150602085019450602081019050613001565b86831015613043578489015161303f601f891682612f4c565b8355505b6001600288020188555050505b505050505050565b600081519050919050565b600082825260208201905092915050565b600061307f82613058565b6130898185613063565b93506130998185602086016120bb565b6130a2816120e5565b840191505092915050565b60006080820190506130c260008301876121e6565b6130cf60208301866121e6565b6130dc604083018561233c565b81810360608301526130ee8184613074565b905095945050505050565b60008151905061310881612010565b92915050565b60006020828403121561312457613123611fda565b5b6000613132848285016130f9565b91505092915050565b7f4e487b7100000000000000000000000000000000000000000000000000000000600052601260045260246000fd5b7f4552433732313a206d696e7420746f20746865207a65726f2061646472657373600082015250565b60006131a06020836120aa565b91506131ab8261316a565b602082019050919050565b600060208201905081810360008301526131cf81613193565b9050919050565b7f4552433732313a20746f6b656e20616c7265616479206d696e74656400000000600082015250565b600061320c601c836120aa565b9150613217826131d6565b602082019050919050565b6000602082019050818103600083015261323b816131ff565b905091905056fea2646970667358221220e529fa203a83ff0a8c631b05c821d7e771799e102adc8e3617e9fadb553eb8ed64736f6c63430008180033",
  "linkReferences": {},
  "deployedLinkReferences": {}
}